{
  "contractName": "BattleshipGame",
  "abi": [
    {
      "inputs": [
        {
          "internalType": "address",
          "name": "_creator",
          "type": "address"
        }
      ],
      "stateMutability": "nonpayable",
      "type": "constructor"
    },
    {
      "anonymous": false,
      "inputs": [
        {
          "indexed": true,
          "internalType": "address",
          "name": "player",
          "type": "address"
        }
      ],
      "name": "AFKWarning",
      "type": "event"
    },
    {
      "anonymous": false,
      "inputs": [
        {
          "indexed": false,
          "internalType": "uint256",
          "name": "amount",
          "type": "uint256"
        }
      ],
      "name": "BetAgreed",
      "type": "event"
    },
    {
      "anonymous": false,
      "inputs": [
        {
          "indexed": true,
          "internalType": "address",
          "name": "player",
          "type": "address"
        },
        {
          "indexed": false,
          "internalType": "uint256",
          "name": "amount",
          "type": "uint256"
        }
      ],
      "name": "BetProposal",
      "type": "event"
    },
    {
      "anonymous": false,
      "inputs": [],
      "name": "BoardsCommitted",
      "type": "event"
    },
    {
      "anonymous": false,
      "inputs": [],
      "name": "FundsDeposited",
      "type": "event"
    },
    {
      "anonymous": false,
      "inputs": [
        {
          "indexed": true,
          "internalType": "address",
          "name": "player",
          "type": "address"
        },
        {
          "indexed": false,
          "internalType": "uint8",
          "name": "cell",
          "type": "uint8"
        }
      ],
      "name": "ShotTaken",
      "type": "event"
    },
    {
      "anonymous": false,
      "inputs": [
        {
          "indexed": false,
          "internalType": "address",
          "name": "player",
          "type": "address"
        }
      ],
      "name": "Winner",
      "type": "event"
    },
    {
      "anonymous": false,
      "inputs": [
        {
          "indexed": false,
          "internalType": "address",
          "name": "player",
          "type": "address"
        }
      ],
      "name": "WinnerVerified",
      "type": "event"
    },
    {
      "inputs": [],
      "name": "AFKPlayer",
      "outputs": [
        {
          "internalType": "address",
          "name": "",
          "type": "address"
        }
      ],
      "stateMutability": "view",
      "type": "function"
    },
    {
      "inputs": [],
      "name": "CELLS_BOARD",
      "outputs": [
        {
          "internalType": "uint8",
          "name": "",
          "type": "uint8"
        }
      ],
      "stateMutability": "view",
      "type": "function"
    },
    {
      "inputs": [],
      "name": "SHIP_CELLS_BOARD",
      "outputs": [
        {
          "internalType": "uint8",
          "name": "",
          "type": "uint8"
        }
      ],
      "stateMutability": "view",
      "type": "function"
    },
    {
      "inputs": [],
      "name": "agreedBetAmount",
      "outputs": [
        {
          "internalType": "uint256",
          "name": "",
          "type": "uint256"
        }
      ],
      "stateMutability": "view",
      "type": "function"
    },
    {
      "inputs": [],
      "name": "currentPhase",
      "outputs": [
        {
          "internalType": "enum BattleshipGame.Phase",
          "name": "",
          "type": "uint8"
        }
      ],
      "stateMutability": "view",
      "type": "function"
    },
    {
      "inputs": [
        {
          "internalType": "address",
          "name": "",
          "type": "address"
        }
      ],
      "name": "hits",
      "outputs": [
        {
          "internalType": "uint8",
          "name": "",
          "type": "uint8"
        }
      ],
      "stateMutability": "view",
      "type": "function"
    },
    {
      "inputs": [],
      "name": "owner",
      "outputs": [
        {
          "internalType": "address",
          "name": "",
          "type": "address"
        }
      ],
      "stateMutability": "view",
      "type": "function"
    },
    {
      "inputs": [],
      "name": "playerOne",
      "outputs": [
        {
          "internalType": "address",
          "name": "",
          "type": "address"
        }
      ],
      "stateMutability": "view",
      "type": "function"
    },
    {
      "inputs": [
        {
          "internalType": "address",
          "name": "",
          "type": "address"
        }
      ],
      "name": "playerPaid",
      "outputs": [
        {
          "internalType": "bool",
          "name": "",
          "type": "bool"
        }
      ],
      "stateMutability": "view",
      "type": "function"
    },
    {
      "inputs": [],
      "name": "playerTurn",
      "outputs": [
        {
          "internalType": "address",
          "name": "",
          "type": "address"
        }
      ],
      "stateMutability": "view",
      "type": "function"
    },
    {
      "inputs": [],
      "name": "playerTwo",
      "outputs": [
        {
          "internalType": "address",
          "name": "",
          "type": "address"
        }
      ],
      "stateMutability": "view",
      "type": "function"
    },
    {
      "inputs": [
        {
          "internalType": "address",
          "name": "",
          "type": "address"
        }
      ],
      "name": "proposedBets",
      "outputs": [
        {
          "internalType": "uint256",
          "name": "",
          "type": "uint256"
        }
      ],
      "stateMutability": "view",
      "type": "function"
    },
    {
      "inputs": [
        {
          "internalType": "address",
          "name": "",
          "type": "address"
        },
        {
          "internalType": "uint256",
          "name": "",
          "type": "uint256"
        }
      ],
      "name": "shotsTaken",
      "outputs": [
        {
          "internalType": "uint8",
          "name": "index",
          "type": "uint8"
        },
        {
          "internalType": "enum BattleshipGame.ShotType",
          "name": "typ",
          "type": "uint8"
        }
      ],
      "stateMutability": "view",
      "type": "function"
    },
    {
      "inputs": [
        {
          "internalType": "address",
          "name": "",
          "type": "address"
        },
        {
          "internalType": "uint8",
          "name": "",
          "type": "uint8"
        }
      ],
      "name": "shotsTakenMap",
      "outputs": [
        {
          "internalType": "bool",
          "name": "",
          "type": "bool"
        }
      ],
      "stateMutability": "view",
      "type": "function"
    },
    {
      "inputs": [],
      "name": "timeout",
      "outputs": [
        {
          "internalType": "uint256",
          "name": "",
          "type": "uint256"
        }
      ],
      "stateMutability": "view",
      "type": "function"
    },
    {
      "inputs": [],
      "name": "winner",
      "outputs": [
        {
          "internalType": "address",
          "name": "",
          "type": "address"
        }
      ],
      "stateMutability": "view",
      "type": "function"
    },
    {
      "inputs": [
        {
          "internalType": "address",
          "name": "_playerTwo",
          "type": "address"
        }
      ],
      "name": "registerPlayerTwo",
      "outputs": [],
      "stateMutability": "nonpayable",
      "type": "function"
    },
    {
      "inputs": [
        {
          "internalType": "uint256",
          "name": "_amount",
          "type": "uint256"
        }
      ],
      "name": "proposeBet",
      "outputs": [],
      "stateMutability": "nonpayable",
      "type": "function"
    },
    {
      "inputs": [
        {
          "internalType": "uint256",
          "name": "_amount",
          "type": "uint256"
        }
      ],
      "name": "acceptBet",
      "outputs": [],
      "stateMutability": "nonpayable",
      "type": "function"
    },
    {
      "inputs": [],
      "name": "reportOpponentAFK",
      "outputs": [],
      "stateMutability": "nonpayable",
      "type": "function"
    },
    {
      "inputs": [],
      "name": "verifyOpponentAFK",
      "outputs": [],
      "stateMutability": "nonpayable",
      "type": "function"
    },
    {
      "inputs": [],
      "name": "betFunds",
      "outputs": [],
      "stateMutability": "payable",
      "type": "function"
    },
    {
      "inputs": [
        {
          "internalType": "bytes32",
          "name": "merkleTreeRoot",
          "type": "bytes32"
        }
      ],
      "name": "commitBoard",
      "outputs": [],
      "stateMutability": "nonpayable",
      "type": "function"
    },
    {
      "inputs": [
        {
          "internalType": "address",
          "name": "player",
          "type": "address"
        }
      ],
      "name": "getShotsTaken",
      "outputs": [
        {
          "components": [
            {
              "internalType": "uint8",
              "name": "index",
              "type": "uint8"
            },
            {
              "internalType": "enum BattleshipGame.ShotType",
              "name": "typ",
              "type": "uint8"
            }
          ],
          "internalType": "struct BattleshipGame.Shot[]",
          "name": "",
          "type": "tuple[]"
        }
      ],
      "stateMutability": "view",
      "type": "function"
    },
    {
      "inputs": [
        {
          "internalType": "uint8",
          "name": "_index",
          "type": "uint8"
        }
      ],
      "name": "attack",
      "outputs": [],
      "stateMutability": "nonpayable",
      "type": "function"
    },
    {
      "inputs": [
        {
          "internalType": "bool",
          "name": "_isShip",
          "type": "bool"
        },
        {
          "internalType": "uint256",
          "name": "_salt",
          "type": "uint256"
        },
        {
          "internalType": "uint8",
          "name": "_index",
          "type": "uint8"
        },
        {
          "internalType": "bytes32[]",
          "name": "_proof",
          "type": "bytes32[]"
        },
        {
          "internalType": "uint8",
          "name": "_attackIndex",
          "type": "uint8"
        }
      ],
      "name": "checkAndAttack",
      "outputs": [],
      "stateMutability": "nonpayable",
      "type": "function"
    },
    {
      "inputs": [
        {
          "internalType": "bool[]",
          "name": "_board",
          "type": "bool[]"
        },
        {
          "internalType": "uint256[]",
          "name": "_salts",
          "type": "uint256[]"
        },
        {
          "internalType": "uint8[]",
          "name": "_indexes",
          "type": "uint8[]"
        },
        {
          "internalType": "bytes32[][]",
          "name": "_proofs",
          "type": "bytes32[][]"
        }
      ],
      "name": "checkWinnerBoard",
      "outputs": [],
      "stateMutability": "nonpayable",
      "type": "function"
    },
    {
      "inputs": [],
      "name": "withdraw",
      "outputs": [],
      "stateMutability": "nonpayable",
      "type": "function"
    }
  ],
  "bytecode": "0x60806040523480156200001157600080fd5b5060405162004e2838038062004e28833981810160405281019062000037919062000157565b336000806101000a81548173ffffffffffffffffffffffffffffffffffffffff021916908373ffffffffffffffffffffffffffffffffffffffff16021790555080600160006101000a81548173ffffffffffffffffffffffffffffffffffffffff021916908373ffffffffffffffffffffffffffffffffffffffff1602179055506000600260146101000a81548160ff02191690836007811115620000e157620000e062000189565b5b021790555050620001b8565b600080fd5b600073ffffffffffffffffffffffffffffffffffffffff82169050919050565b60006200011f82620000f2565b9050919050565b620001318162000112565b81146200013d57600080fd5b50565b600081519050620001518162000126565b92915050565b60006020828403121562000170576200016f620000ed565b5b6000620001808482850162000140565b91505092915050565b7f4e487b7100000000000000000000000000000000000000000000000000000000600052602160045260246000fd5b614c6080620001c86000396000f3fe6080604052600436106101b75760003560e01c8063855e26f5116100ec578063d43faafd1161008a578063e75e0e5b11610064578063e75e0e5b146105a6578063ea66144a146105cf578063eca03302146105f8578063fdf3a8f414610635576101b7565b8063d43faafd14610515578063dfbf53ae1461053e578063e65e849214610569576101b7565b8063b7ba4b7e116100c6578063b7ba4b7e14610457578063b93e709714610494578063bcffcf41146104bf578063d30074d9146104ea576101b7565b8063855e26f5146103d85780638da5cb5b14610401578063ad487d171461042c576101b7565b806338dca7f2116101595780636c0c27e1116101335780636c0c27e1146103445780636ef3989f1461036d57806370dea79a14610396578063720cc186146103c1576101b7565b806338dca7f2146102d75780633ccfd60b14610302578063456bc02e14610319576101b7565b80631999eca8116101955780631999eca8146102295780631e20ddab146102525780632f4549bb1461025c57806333bda0f41461029a576101b7565b8063055ad42e146101bc5780630a9f85dd146101e757806316774d8c14610212575b600080fd5b3480156101c857600080fd5b506101d1610672565b6040516101de9190613c05565b60405180910390f35b3480156101f357600080fd5b506101fc610685565b6040516102099190613c61565b60405180910390f35b34801561021e57600080fd5b506102276106ab565b005b34801561023557600080fd5b50610250600480360381019061024b9190613cc9565b610c36565b005b61025a610f0b565b005b34801561026857600080fd5b50610283600480360381019061027e9190613d58565b611463565b604051610291929190613def565b60405180910390f35b3480156102a657600080fd5b506102c160048036038101906102bc9190613e18565b6114ba565b6040516102ce9190613e73565b60405180910390f35b3480156102e357600080fd5b506102ec6114e9565b6040516102f99190613c61565b60405180910390f35b34801561030e57600080fd5b5061031761150f565b005b34801561032557600080fd5b5061032e61161d565b60405161033b9190613e9d565b60405180910390f35b34801561035057600080fd5b5061036b60048036038101906103669190613eb8565b611623565b005b34801561037957600080fd5b50610394600480360381019061038f91906143ca565b61194d565b005b3480156103a257600080fd5b506103ab6121cb565b6040516103b89190613e9d565b60405180910390f35b3480156103cd57600080fd5b506103d66121d1565b005b3480156103e457600080fd5b506103ff60048036038101906103fa91906144a1565b61242a565b005b34801561040d57600080fd5b50610416612531565b6040516104239190613c61565b60405180910390f35b34801561043857600080fd5b50610441612555565b60405161044e91906144ce565b60405180910390f35b34801561046357600080fd5b5061047e600480360381019061047991906144a1565b61255a565b60405161048b9190613e9d565b60405180910390f35b3480156104a057600080fd5b506104a9612572565b6040516104b691906144ce565b60405180910390f35b3480156104cb57600080fd5b506104d4612577565b6040516104e19190613c61565b60405180910390f35b3480156104f657600080fd5b506104ff61259d565b60405161050c9190613c61565b60405180910390f35b34801561052157600080fd5b5061053c60048036038101906105379190613eb8565b6125c3565b005b34801561054a57600080fd5b5061055361274a565b6040516105609190613c61565b60405180910390f35b34801561057557600080fd5b50610590600480360381019061058b91906144a1565b612770565b60405161059d91906145e5565b60405180910390f35b3480156105b257600080fd5b506105cd60048036038101906105c89190614607565b612862565b005b3480156105db57600080fd5b506105f660048036038101906105f1919061469e565b613116565b005b34801561060457600080fd5b5061061f600480360381019061061a91906144a1565b61369a565b60405161062c9190613e73565b60405180910390f35b34801561064157600080fd5b5061065c600480360381019061065791906144a1565b6136ba565b60405161066991906144ce565b60405180910390f35b600260149054906101000a900460ff1681565b600260009054906101000a900473ffffffffffffffffffffffffffffffffffffffff1681565b600160009054906101000a900473ffffffffffffffffffffffffffffffffffffffff1673ffffffffffffffffffffffffffffffffffffffff163373ffffffffffffffffffffffffffffffffffffffff1614806107545750600260009054906101000a900473ffffffffffffffffffffffffffffffffffffffff1673ffffffffffffffffffffffffffffffffffffffff163373ffffffffffffffffffffffffffffffffffffffff16145b61075d57600080fd5b6000600160009054906101000a900473ffffffffffffffffffffffffffffffffffffffff1673ffffffffffffffffffffffffffffffffffffffff163373ffffffffffffffffffffffffffffffffffffffff16146107dc57600160009054906101000a900473ffffffffffffffffffffffffffffffffffffffff16610800565b600260009054906101000a900473ffffffffffffffffffffffffffffffffffffffff165b9050600073ffffffffffffffffffffffffffffffffffffffff16600360009054906101000a900473ffffffffffffffffffffffffffffffffffffffff1673ffffffffffffffffffffffffffffffffffffffff1614801561091357506000600781111561086f5761086e613b8e565b5b600260149054906101000a900460ff16600781111561089157610890613b8e565b5b141580156108d35750600660078111156108ae576108ad613b8e565b5b600260149054906101000a900460ff1660078111156108d0576108cf613b8e565b5b14155b801561091257506007808111156108ed576108ec613b8e565b5b600260149054906101000a900460ff16600781111561090f5761090e613b8e565b5b14155b5b8015610b5d57506002600781111561092e5761092d613b8e565b5b600260149054906101000a900460ff1660078111156109505761094f613b8e565b5b1480156109a65750600760003373ffffffffffffffffffffffffffffffffffffffff1673ffffffffffffffffffffffffffffffffffffffff16815260200190815260200160002060009054906101000a900460ff165b80156109fc5750600760008273ffffffffffffffffffffffffffffffffffffffff1673ffffffffffffffffffffffffffffffffffffffff16815260200190815260200160002060009054906101000a900460ff16155b80610a87575060036007811115610a1657610a15613b8e565b5b600260149054906101000a900460ff166007811115610a3857610a37613b8e565b5b148015610a8657506000801b600860008373ffffffffffffffffffffffffffffffffffffffff1673ffffffffffffffffffffffffffffffffffffffff16815260200190815260200160002054145b5b80610b1e575060046007811115610aa157610aa0613b8e565b5b600260149054906101000a900460ff166007811115610ac357610ac2613b8e565b5b148015610b1d57508073ffffffffffffffffffffffffffffffffffffffff16600960009054906101000a900473ffffffffffffffffffffffffffffffffffffffff1673ffffffffffffffffffffffffffffffffffffffff16145b5b80610b5c575060056007811115610b3857610b37613b8e565b5b600260149054906101000a900460ff166007811115610b5a57610b59613b8e565b5b145b5b610b9c576040517f08c379a0000000000000000000000000000000000000000000000000000000008152600401610b9390614728565b60405180910390fd5b8073ffffffffffffffffffffffffffffffffffffffff167fd9c9e1f2d0582f5b81aa2adf7d67d67d8a5a36c62b9e2c274b2053f67bc389d860405160405180910390a280600360006101000a81548173ffffffffffffffffffffffffffffffffffffffff021916908373ffffffffffffffffffffffffffffffffffffffff160217905550600543610c2d9190614777565b60048190555050565b60046007811115610c4a57610c49613b8e565b5b600260149054906101000a900460ff166007811115610c6c57610c6b613b8e565b5b14610c7657600080fd5b600960009054906101000a900473ffffffffffffffffffffffffffffffffffffffff1673ffffffffffffffffffffffffffffffffffffffff163373ffffffffffffffffffffffffffffffffffffffff1614610cd057600080fd5b600073ffffffffffffffffffffffffffffffffffffffff16600360009054906101000a900473ffffffffffffffffffffffffffffffffffffffff1673ffffffffffffffffffffffffffffffffffffffff1614610eff5760045443108015610d845750600360009054906101000a900473ffffffffffffffffffffffffffffffffffffffff1673ffffffffffffffffffffffffffffffffffffffff163373ffffffffffffffffffffffffffffffffffffffff16145b15610db357600360006101000a81549073ffffffffffffffffffffffffffffffffffffffff0219169055610efe565b6004544310610efd576000600160009054906101000a900473ffffffffffffffffffffffffffffffffffffffff1673ffffffffffffffffffffffffffffffffffffffff16600360009054906101000a900473ffffffffffffffffffffffffffffffffffffffff1673ffffffffffffffffffffffffffffffffffffffff1614610e5d57600160009054906101000a900473ffffffffffffffffffffffffffffffffffffffff16610e81565b600260009054906101000a900473ffffffffffffffffffffffffffffffffffffffff165b90507fe48a335438ec9cf1059d7b134553ca861398a18d023bd34b9e4d956f5f7ba00481604051610eb29190613c61565b60405180910390a180600d60006101000a81548173ffffffffffffffffffffffffffffffffffffffff021916908373ffffffffffffffffffffffffffffffffffffffff160217905550505b5b5b610f08816136da565b50565b600160009054906101000a900473ffffffffffffffffffffffffffffffffffffffff1673ffffffffffffffffffffffffffffffffffffffff163373ffffffffffffffffffffffffffffffffffffffff161480610fb45750600260009054906101000a900473ffffffffffffffffffffffffffffffffffffffff1673ffffffffffffffffffffffffffffffffffffffff163373ffffffffffffffffffffffffffffffffffffffff16145b610fbd57600080fd5b60026007811115610fd157610fd0613b8e565b5b600260149054906101000a900460ff166007811115610ff357610ff2613b8e565b5b14610ffd57600080fd5b600073ffffffffffffffffffffffffffffffffffffffff16600360009054906101000a900473ffffffffffffffffffffffffffffffffffffffff1673ffffffffffffffffffffffffffffffffffffffff161461122c57600454431080156110b15750600360009054906101000a900473ffffffffffffffffffffffffffffffffffffffff1673ffffffffffffffffffffffffffffffffffffffff163373ffffffffffffffffffffffffffffffffffffffff16145b156110e057600360006101000a81549073ffffffffffffffffffffffffffffffffffffffff021916905561122b565b600454431061122a576000600160009054906101000a900473ffffffffffffffffffffffffffffffffffffffff1673ffffffffffffffffffffffffffffffffffffffff16600360009054906101000a900473ffffffffffffffffffffffffffffffffffffffff1673ffffffffffffffffffffffffffffffffffffffff161461118a57600160009054906101000a900473ffffffffffffffffffffffffffffffffffffffff166111ae565b600260009054906101000a900473ffffffffffffffffffffffffffffffffffffffff165b90507fe48a335438ec9cf1059d7b134553ca861398a18d023bd34b9e4d956f5f7ba004816040516111df9190613c61565b60405180910390a180600d60006101000a81548173ffffffffffffffffffffffffffffffffffffffff021916908373ffffffffffffffffffffffffffffffffffffffff160217905550505b5b5b600760003373ffffffffffffffffffffffffffffffffffffffff1673ffffffffffffffffffffffffffffffffffffffff16815260200190815260200160002060009054906101000a900460ff16158015611287575060065434145b6112c6576040517f08c379a00000000000000000000000000000000000000000000000000000000081526004016112bd9061481d565b60405180910390fd5b6001600760003373ffffffffffffffffffffffffffffffffffffffff1673ffffffffffffffffffffffffffffffffffffffff16815260200190815260200160002060006101000a81548160ff02191690831515021790555060076000600160009054906101000a900473ffffffffffffffffffffffffffffffffffffffff1673ffffffffffffffffffffffffffffffffffffffff1673ffffffffffffffffffffffffffffffffffffffff16815260200190815260200160002060009054906101000a900460ff168015611404575060076000600260009054906101000a900473ffffffffffffffffffffffffffffffffffffffff1673ffffffffffffffffffffffffffffffffffffffff1673ffffffffffffffffffffffffffffffffffffffff16815260200190815260200160002060009054906101000a900460ff165b15611461577fd2d72fde7537c550b5e85eabb70a65949c78bb66328f56c78ddc8251950a994160405160405180910390a16003600260146101000a81548160ff0219169083600781111561145b5761145a613b8e565b5b02179055505b565b600b602052816000526040600020818154811061147f57600080fd5b90600052602060002001600091509150508060000160009054906101000a900460ff16908060000160019054906101000a900460ff16905082565b600a6020528160005260406000206020528060005260406000206000915091509054906101000a900460ff1681565b600360009054906101000a900473ffffffffffffffffffffffffffffffffffffffff1681565b6006600781111561152357611522613b8e565b5b600260149054906101000a900460ff16600781111561154557611544613b8e565b5b1461154f57600080fd5b600d60009054906101000a900473ffffffffffffffffffffffffffffffffffffffff1673ffffffffffffffffffffffffffffffffffffffff163373ffffffffffffffffffffffffffffffffffffffff16146115a957600080fd5b3373ffffffffffffffffffffffffffffffffffffffff166108fc479081150290604051600060405180830381858888f193505050501580156115ef573d6000803e3d6000fd5b506007600260146101000a81548160ff0219169083600781111561161657611615613b8e565b5b0217905550565b60065481565b600160009054906101000a900473ffffffffffffffffffffffffffffffffffffffff1673ffffffffffffffffffffffffffffffffffffffff163373ffffffffffffffffffffffffffffffffffffffff1614806116cc5750600260009054906101000a900473ffffffffffffffffffffffffffffffffffffffff1673ffffffffffffffffffffffffffffffffffffffff163373ffffffffffffffffffffffffffffffffffffffff16145b6116d557600080fd5b600160078111156116e9576116e8613b8e565b5b600260149054906101000a900460ff16600781111561170b5761170a613b8e565b5b1461171557600080fd5b600081141580156118a35750600160009054906101000a900473ffffffffffffffffffffffffffffffffffffffff1673ffffffffffffffffffffffffffffffffffffffff163373ffffffffffffffffffffffffffffffffffffffff161480156117de57508060056000600260009054906101000a900473ffffffffffffffffffffffffffffffffffffffff1673ffffffffffffffffffffffffffffffffffffffff1673ffffffffffffffffffffffffffffffffffffffff16815260200190815260200160002054145b806118a25750600260009054906101000a900473ffffffffffffffffffffffffffffffffffffffff1673ffffffffffffffffffffffffffffffffffffffff163373ffffffffffffffffffffffffffffffffffffffff161480156118a157508060056000600160009054906101000a900473ffffffffffffffffffffffffffffffffffffffff1673ffffffffffffffffffffffffffffffffffffffff1673ffffffffffffffffffffffffffffffffffffffff16815260200190815260200160002054145b5b5b6118e2576040517f08c379a00000000000000000000000000000000000000000000000000000000081526004016118d990614889565b60405180910390fd5b7f50ac8120affab45c80b99be15eba8c23598651f799d4ad1c2e0c91f92e7e23b1816040516119119190613e9d565b60405180910390a18060068190555060028060146101000a81548160ff0219169083600781111561194557611944613b8e565b5b021790555050565b6005600781111561196157611960613b8e565b5b600260149054906101000a900460ff16600781111561198357611982613b8e565b5b1461198d57600080fd5b600d60009054906101000a900473ffffffffffffffffffffffffffffffffffffffff1673ffffffffffffffffffffffffffffffffffffffff163373ffffffffffffffffffffffffffffffffffffffff16146119e757600080fd5b600073ffffffffffffffffffffffffffffffffffffffff16600360009054906101000a900473ffffffffffffffffffffffffffffffffffffffff1673ffffffffffffffffffffffffffffffffffffffff1614611c165760045443108015611a9b5750600360009054906101000a900473ffffffffffffffffffffffffffffffffffffffff1673ffffffffffffffffffffffffffffffffffffffff163373ffffffffffffffffffffffffffffffffffffffff16145b15611aca57600360006101000a81549073ffffffffffffffffffffffffffffffffffffffff0219169055611c15565b6004544310611c14576000600160009054906101000a900473ffffffffffffffffffffffffffffffffffffffff1673ffffffffffffffffffffffffffffffffffffffff16600360009054906101000a900473ffffffffffffffffffffffffffffffffffffffff1673ffffffffffffffffffffffffffffffffffffffff1614611b7457600160009054906101000a900473ffffffffffffffffffffffffffffffffffffffff16611b98565b600260009054906101000a900473ffffffffffffffffffffffffffffffffffffffff165b90507fe48a335438ec9cf1059d7b134553ca861398a18d023bd34b9e4d956f5f7ba00481604051611bc99190613c61565b60405180910390a180600d60006101000a81548173ffffffffffffffffffffffffffffffffffffffff021916908373ffffffffffffffffffffffffffffffffffffffff160217905550505b5b5b8251845114611c2457600080fd5b8051845114611c3257600080fd5b6000600160009054906101000a900473ffffffffffffffffffffffffffffffffffffffff1673ffffffffffffffffffffffffffffffffffffffff163373ffffffffffffffffffffffffffffffffffffffff1614611cb157600160009054906101000a900473ffffffffffffffffffffffffffffffffffffffff16611cd5565b600260009054906101000a900473ffffffffffffffffffffffffffffffffffffffff165b90506000805b8651811015611f6e57611d98878281518110611cfa57611cf96148a9565b5b6020026020010151878381518110611d1557611d146148a9565b5b6020026020010151878481518110611d3057611d2f6148a9565b5b6020026020010151878581518110611d4b57611d4a6148a9565b5b6020026020010151600860003373ffffffffffffffffffffffffffffffffffffffff1673ffffffffffffffffffffffffffffffffffffffff16815260200190815260200160002054613a72565b1580611e1e5750600a60008473ffffffffffffffffffffffffffffffffffffffff1673ffffffffffffffffffffffffffffffffffffffff1681526020019081526020016000206000868381518110611df357611df26148a9565b5b602002602001015160ff1660ff16815260200190815260200160002060009054906101000a900460ff165b15611ea3577fe48a335438ec9cf1059d7b134553ca861398a18d023bd34b9e4d956f5f7ba00483604051611e529190613c61565b60405180910390a182600d60006101000a81548173ffffffffffffffffffffffffffffffffffffffff021916908373ffffffffffffffffffffffffffffffffffffffff1602179055505050506121c5565b6001600a60008573ffffffffffffffffffffffffffffffffffffffff1673ffffffffffffffffffffffffffffffffffffffff1681526020019081526020016000206000878481518110611ef957611ef86148a9565b5b602002602001015160ff1660ff16815260200190815260200160002060006101000a81548160ff021916908315150217905550868181518110611f3f57611f3e6148a9565b5b602002602001015115611f5b578180611f57906148d8565b9250505b8080611f6690614901565b915050611cdb565b5060005b604060ff168160ff16101561207c57600a60008473ffffffffffffffffffffffffffffffffffffffff1673ffffffffffffffffffffffffffffffffffffffff16815260200190815260200160002060008260ff1660ff16815260200190815260200160002060009054906101000a900460ff16612069577fe48a335438ec9cf1059d7b134553ca861398a18d023bd34b9e4d956f5f7ba004836040516120189190613c61565b60405180910390a182600d60006101000a81548173ffffffffffffffffffffffffffffffffffffffff021916908373ffffffffffffffffffffffffffffffffffffffff1602179055505050506121c5565b8080612074906148d8565b915050611f72565b50600a60ff16600c60003373ffffffffffffffffffffffffffffffffffffffff1673ffffffffffffffffffffffffffffffffffffffff16815260200190815260200160002060009054906101000a900460ff16826120da9190614949565b60ff160361211e577fe48a335438ec9cf1059d7b134553ca861398a18d023bd34b9e4d956f5f7ba004336040516121119190613c61565b60405180910390a1612197565b7fe48a335438ec9cf1059d7b134553ca861398a18d023bd34b9e4d956f5f7ba0048260405161214d9190613c61565b60405180910390a181600d60006101000a81548173ffffffffffffffffffffffffffffffffffffffff021916908373ffffffffffffffffffffffffffffffffffffffff1602179055505b6006600260146101000a81548160ff021916908360078111156121bd576121bc613b8e565b5b021790555050505b50505050565b60045481565b600160009054906101000a900473ffffffffffffffffffffffffffffffffffffffff1673ffffffffffffffffffffffffffffffffffffffff163373ffffffffffffffffffffffffffffffffffffffff16148061227a5750600260009054906101000a900473ffffffffffffffffffffffffffffffffffffffff1673ffffffffffffffffffffffffffffffffffffffff163373ffffffffffffffffffffffffffffffffffffffff16145b61228357600080fd5b600073ffffffffffffffffffffffffffffffffffffffff16600360009054906101000a900473ffffffffffffffffffffffffffffffffffffffff1673ffffffffffffffffffffffffffffffffffffffff16036122de57600080fd5b6004544310612428576000600160009054906101000a900473ffffffffffffffffffffffffffffffffffffffff1673ffffffffffffffffffffffffffffffffffffffff16600360009054906101000a900473ffffffffffffffffffffffffffffffffffffffff1673ffffffffffffffffffffffffffffffffffffffff161461238857600160009054906101000a900473ffffffffffffffffffffffffffffffffffffffff166123ac565b600260009054906101000a900473ffffffffffffffffffffffffffffffffffffffff165b90507fe48a335438ec9cf1059d7b134553ca861398a18d023bd34b9e4d956f5f7ba004816040516123dd9190613c61565b60405180910390a180600d60006101000a81548173ffffffffffffffffffffffffffffffffffffffff021916908373ffffffffffffffffffffffffffffffffffffffff160217905550505b565b60008054906101000a900473ffffffffffffffffffffffffffffffffffffffff1673ffffffffffffffffffffffffffffffffffffffff163373ffffffffffffffffffffffffffffffffffffffff161461248257600080fd5b6000600781111561249657612495613b8e565b5b600260149054906101000a900460ff1660078111156124b8576124b7613b8e565b5b146124c257600080fd5b80600260006101000a81548173ffffffffffffffffffffffffffffffffffffffff021916908373ffffffffffffffffffffffffffffffffffffffff1602179055506001600260146101000a81548160ff0219169083600781111561252957612528613b8e565b5b021790555050565b60008054906101000a900473ffffffffffffffffffffffffffffffffffffffff1681565b604081565b60056020528060005260406000206000915090505481565b600a81565b600160009054906101000a900473ffffffffffffffffffffffffffffffffffffffff1681565b600960009054906101000a900473ffffffffffffffffffffffffffffffffffffffff1681565b600160009054906101000a900473ffffffffffffffffffffffffffffffffffffffff1673ffffffffffffffffffffffffffffffffffffffff163373ffffffffffffffffffffffffffffffffffffffff16148061266c5750600260009054906101000a900473ffffffffffffffffffffffffffffffffffffffff1673ffffffffffffffffffffffffffffffffffffffff163373ffffffffffffffffffffffffffffffffffffffff16145b61267557600080fd5b6001600781111561268957612688613b8e565b5b600260149054906101000a900460ff1660078111156126ab576126aa613b8e565b5b146126b557600080fd5b80600560003373ffffffffffffffffffffffffffffffffffffffff1673ffffffffffffffffffffffffffffffffffffffff168152602001908152602001600020819055503373ffffffffffffffffffffffffffffffffffffffff167f4a8a2c0cf89add878b8fd9d1a4868d4b9536b6cbedec55c1b1eb3a5fa4cfdca28260405161273f9190613e9d565b60405180910390a250565b600d60009054906101000a900473ffffffffffffffffffffffffffffffffffffffff1681565b6060600b60008373ffffffffffffffffffffffffffffffffffffffff1673ffffffffffffffffffffffffffffffffffffffff168152602001908152602001600020805480602002602001604051908101604052809291908181526020016000905b82821015612857578382906000526020600020016040518060400160405290816000820160009054906101000a900460ff1660ff1660ff1681526020016000820160019054906101000a900460ff16600381111561283257612831613b8e565b5b600381111561284457612843613b8e565b5b81525050815260200190600101906127d1565b505050509050919050565b6004600781111561287657612875613b8e565b5b600260149054906101000a900460ff16600781111561289857612897613b8e565b5b146128a257600080fd5b600960009054906101000a900473ffffffffffffffffffffffffffffffffffffffff1673ffffffffffffffffffffffffffffffffffffffff163373ffffffffffffffffffffffffffffffffffffffff16146128fc57600080fd5b600073ffffffffffffffffffffffffffffffffffffffff16600360009054906101000a900473ffffffffffffffffffffffffffffffffffffffff1673ffffffffffffffffffffffffffffffffffffffff1614612b2b57600454431080156129b05750600360009054906101000a900473ffffffffffffffffffffffffffffffffffffffff1673ffffffffffffffffffffffffffffffffffffffff163373ffffffffffffffffffffffffffffffffffffffff16145b156129df57600360006101000a81549073ffffffffffffffffffffffffffffffffffffffff0219169055612b2a565b6004544310612b29576000600160009054906101000a900473ffffffffffffffffffffffffffffffffffffffff1673ffffffffffffffffffffffffffffffffffffffff16600360009054906101000a900473ffffffffffffffffffffffffffffffffffffffff1673ffffffffffffffffffffffffffffffffffffffff1614612a8957600160009054906101000a900473ffffffffffffffffffffffffffffffffffffffff16612aad565b600260009054906101000a900473ffffffffffffffffffffffffffffffffffffffff165b90507fe48a335438ec9cf1059d7b134553ca861398a18d023bd34b9e4d956f5f7ba00481604051612ade9190613c61565b60405180910390a180600d60006101000a81548173ffffffffffffffffffffffffffffffffffffffff021916908373ffffffffffffffffffffffffffffffffffffffff160217905550505b5b5b6000600160009054906101000a900473ffffffffffffffffffffffffffffffffffffffff1673ffffffffffffffffffffffffffffffffffffffff163373ffffffffffffffffffffffffffffffffffffffff1614612baa57600160009054906101000a900473ffffffffffffffffffffffffffffffffffffffff16612bce565b600260009054906101000a900473ffffffffffffffffffffffffffffffffffffffff165b905060006001600b60008473ffffffffffffffffffffffffffffffffffffffff1673ffffffffffffffffffffffffffffffffffffffff16815260200190815260200160002080549050612c21919061497e565b905060016003811115612c3757612c36613b8e565b5b600b60008473ffffffffffffffffffffffffffffffffffffffff1673ffffffffffffffffffffffffffffffffffffffff1681526020019081526020016000208281548110612c8857612c876148a9565b5b9060005260206000200160000160019054906101000a900460ff166003811115612cb557612cb4613b8e565b5b14612cc357612cc26149b2565b5b8460ff16600b60008473ffffffffffffffffffffffffffffffffffffffff1673ffffffffffffffffffffffffffffffffffffffff1681526020019081526020016000208281548110612d1857612d176148a9565b5b9060005260206000200160000160009054906101000a900460ff1660ff1614612d76576040517f08c379a0000000000000000000000000000000000000000000000000000000008152600401612d6d90614a2d565b60405180910390fd5b612dc287878787600860003373ffffffffffffffffffffffffffffffffffffffff1673ffffffffffffffffffffffffffffffffffffffff16815260200190815260200160002054613a72565b612e70577fe48a335438ec9cf1059d7b134553ca861398a18d023bd34b9e4d956f5f7ba00482604051612df59190613c61565b60405180910390a16006600260146101000a81548160ff02191690836007811115612e2357612e22613b8e565b5b021790555081600d60006101000a81548173ffffffffffffffffffffffffffffffffffffffff021916908373ffffffffffffffffffffffffffffffffffffffff160217905550505061310f565b861561307b576002600b60008473ffffffffffffffffffffffffffffffffffffffff1673ffffffffffffffffffffffffffffffffffffffff1681526020019081526020016000208281548110612ec957612ec86148a9565b5b9060005260206000200160000160016101000a81548160ff02191690836003811115612ef857612ef7613b8e565b5b0217905550600c60003373ffffffffffffffffffffffffffffffffffffffff1673ffffffffffffffffffffffffffffffffffffffff168152602001908152602001600020600081819054906101000a900460ff1680929190612f59906148d8565b91906101000a81548160ff021916908360ff16021790555050600a60ff16600c60003373ffffffffffffffffffffffffffffffffffffffff1673ffffffffffffffffffffffffffffffffffffffff16815260200190815260200160002060009054906101000a900460ff1660ff1603613076577f745c90b656b4aafe296c8ca35aeacfe56cb96c90e1d320e5da643fff1051b6c082604051612ffb9190613c61565b60405180910390a181600d60006101000a81548173ffffffffffffffffffffffffffffffffffffffff021916908373ffffffffffffffffffffffffffffffffffffffff1602179055506005600260146101000a81548160ff0219169083600781111561306a57613069613b8e565b5b0217905550505061310f565b613103565b6003600b60008473ffffffffffffffffffffffffffffffffffffffff1673ffffffffffffffffffffffffffffffffffffffff16815260200190815260200160002082815481106130ce576130cd6148a9565b5b9060005260206000200160000160016101000a81548160ff021916908360038111156130fd576130fc613b8e565b5b02179055505b61310c836136da565b50505b5050505050565b600160009054906101000a900473ffffffffffffffffffffffffffffffffffffffff1673ffffffffffffffffffffffffffffffffffffffff163373ffffffffffffffffffffffffffffffffffffffff1614806131bf5750600260009054906101000a900473ffffffffffffffffffffffffffffffffffffffff1673ffffffffffffffffffffffffffffffffffffffff163373ffffffffffffffffffffffffffffffffffffffff16145b6131c857600080fd5b600360078111156131dc576131db613b8e565b5b600260149054906101000a900460ff1660078111156131fe576131fd613b8e565b5b1461320857600080fd5b600073ffffffffffffffffffffffffffffffffffffffff16600360009054906101000a900473ffffffffffffffffffffffffffffffffffffffff1673ffffffffffffffffffffffffffffffffffffffff161461343757600454431080156132bc5750600360009054906101000a900473ffffffffffffffffffffffffffffffffffffffff1673ffffffffffffffffffffffffffffffffffffffff163373ffffffffffffffffffffffffffffffffffffffff16145b156132eb57600360006101000a81549073ffffffffffffffffffffffffffffffffffffffff0219169055613436565b6004544310613435576000600160009054906101000a900473ffffffffffffffffffffffffffffffffffffffff1673ffffffffffffffffffffffffffffffffffffffff16600360009054906101000a900473ffffffffffffffffffffffffffffffffffffffff1673ffffffffffffffffffffffffffffffffffffffff161461339557600160009054906101000a900473ffffffffffffffffffffffffffffffffffffffff166133b9565b600260009054906101000a900473ffffffffffffffffffffffffffffffffffffffff165b90507fe48a335438ec9cf1059d7b134553ca861398a18d023bd34b9e4d956f5f7ba004816040516133ea9190613c61565b60405180910390a180600d60006101000a81548173ffffffffffffffffffffffffffffffffffffffff021916908373ffffffffffffffffffffffffffffffffffffffff160217905550505b5b5b6000801b600860003373ffffffffffffffffffffffffffffffffffffffff1673ffffffffffffffffffffffffffffffffffffffff16815260200190815260200160002054146134bb576040517f08c379a00000000000000000000000000000000000000000000000000000000081526004016134b290614abf565b60405180910390fd5b80600860003373ffffffffffffffffffffffffffffffffffffffff1673ffffffffffffffffffffffffffffffffffffffff168152602001908152602001600020819055506000801b60086000600160009054906101000a900473ffffffffffffffffffffffffffffffffffffffff1673ffffffffffffffffffffffffffffffffffffffff1673ffffffffffffffffffffffffffffffffffffffff16815260200190815260200160002054141580156135d757506000801b60086000600260009054906101000a900473ffffffffffffffffffffffffffffffffffffffff1673ffffffffffffffffffffffffffffffffffffffff1673ffffffffffffffffffffffffffffffffffffffff1681526020019081526020016000205414155b15613697577f48c0ac148c6adb019cea448b4b78c69778a7b6abdfadce9a6acdc8b983e94bee60405160405180910390a16004600260146101000a81548160ff0219169083600781111561362e5761362d613b8e565b5b0217905550600260009054906101000a900473ffffffffffffffffffffffffffffffffffffffff16600960006101000a81548173ffffffffffffffffffffffffffffffffffffffff021916908373ffffffffffffffffffffffffffffffffffffffff1602179055505b50565b60076020528060005260406000206000915054906101000a900460ff1681565b600c6020528060005260406000206000915054906101000a900460ff1681565b60001515600a60003373ffffffffffffffffffffffffffffffffffffffff1673ffffffffffffffffffffffffffffffffffffffff16815260200190815260200160002060008360ff1660ff16815260200190815260200160002060009054906101000a900460ff16151514613784576040517f08c379a000000000000000000000000000000000000000000000000000000000815260040161377b90614b2b565b60405180910390fd5b604060ff168160ff16106137cd576040517f08c379a00000000000000000000000000000000000000000000000000000000081526004016137c490614b97565b60405180910390fd5b6001600a60003373ffffffffffffffffffffffffffffffffffffffff1673ffffffffffffffffffffffffffffffffffffffff16815260200190815260200160002060008360ff1660ff16815260200190815260200160002060006101000a81548160ff021916908315150217905550600b60003373ffffffffffffffffffffffffffffffffffffffff1673ffffffffffffffffffffffffffffffffffffffff16815260200190815260200160002060405180604001604052808360ff168152602001600160038111156138a3576138a2613b8e565b5b8152509080600181540180825580915050600190039060005260206000200160009091909190915060008201518160000160006101000a81548160ff021916908360ff16021790555060208201518160000160016101000a81548160ff0219169083600381111561391757613916613b8e565b5b021790555050503373ffffffffffffffffffffffffffffffffffffffff167f665e09da1c684bb4ada2b5c04fe0bb20328ca455aae1928734e0a40dcf0e099e8260405161396491906144ce565b60405180910390a2600160009054906101000a900473ffffffffffffffffffffffffffffffffffffffff1673ffffffffffffffffffffffffffffffffffffffff16600960009054906101000a900473ffffffffffffffffffffffffffffffffffffffff1673ffffffffffffffffffffffffffffffffffffffff1614613a0b57600160009054906101000a900473ffffffffffffffffffffffffffffffffffffffff16613a2f565b600260009054906101000a900473ffffffffffffffffffffffffffffffffffffffff165b600960006101000a81548173ffffffffffffffffffffffffffffffffffffffff021916908373ffffffffffffffffffffffffffffffffffffffff16021790555050565b600080868686604051602001613a8a93929190614bb7565b60405160208183030381529060405280519060200120604051602001613ab09190614c0f565b604051602081830303815290604052805190602001209050613ad3848483613adf565b91505095945050505050565b600082613aec8584613af6565b1490509392505050565b60008082905060005b8451811015613b4157613b2c82868381518110613b1f57613b1e6148a9565b5b6020026020010151613b4c565b91508080613b3990614901565b915050613aff565b508091505092915050565b6000818310613b6457613b5f8284613b77565b613b6f565b613b6e8383613b77565b5b905092915050565b600082600052816020526040600020905092915050565b7f4e487b7100000000000000000000000000000000000000000000000000000000600052602160045260246000fd5b60088110613bce57613bcd613b8e565b5b50565b6000819050613bdf82613bbd565b919050565b6000613bef82613bd1565b9050919050565b613bff81613be4565b82525050565b6000602082019050613c1a6000830184613bf6565b92915050565b600073ffffffffffffffffffffffffffffffffffffffff82169050919050565b6000613c4b82613c20565b9050919050565b613c5b81613c40565b82525050565b6000602082019050613c766000830184613c52565b92915050565b6000604051905090565b600080fd5b600080fd5b600060ff82169050919050565b613ca681613c90565b8114613cb157600080fd5b50565b600081359050613cc381613c9d565b92915050565b600060208284031215613cdf57613cde613c86565b5b6000613ced84828501613cb4565b91505092915050565b613cff81613c40565b8114613d0a57600080fd5b50565b600081359050613d1c81613cf6565b92915050565b6000819050919050565b613d3581613d22565b8114613d4057600080fd5b50565b600081359050613d5281613d2c565b92915050565b60008060408385031215613d6f57613d6e613c86565b5b6000613d7d85828601613d0d565b9250506020613d8e85828601613d43565b9150509250929050565b613da181613c90565b82525050565b60048110613db857613db7613b8e565b5b50565b6000819050613dc982613da7565b919050565b6000613dd982613dbb565b9050919050565b613de981613dce565b82525050565b6000604082019050613e046000830185613d98565b613e116020830184613de0565b9392505050565b60008060408385031215613e2f57613e2e613c86565b5b6000613e3d85828601613d0d565b9250506020613e4e85828601613cb4565b9150509250929050565b60008115159050919050565b613e6d81613e58565b82525050565b6000602082019050613e886000830184613e64565b92915050565b613e9781613d22565b82525050565b6000602082019050613eb26000830184613e8e565b92915050565b600060208284031215613ece57613ecd613c86565b5b6000613edc84828501613d43565b91505092915050565b600080fd5b6000601f19601f8301169050919050565b7f4e487b7100000000000000000000000000000000000000000000000000000000600052604160045260246000fd5b613f3382613eea565b810181811067ffffffffffffffff82111715613f5257613f51613efb565b5b80604052505050565b6000613f65613c7c565b9050613f718282613f2a565b919050565b600067ffffffffffffffff821115613f9157613f90613efb565b5b602082029050602081019050919050565b600080fd5b613fb081613e58565b8114613fbb57600080fd5b50565b600081359050613fcd81613fa7565b92915050565b6000613fe6613fe184613f76565b613f5b565b9050808382526020820190506020840283018581111561400957614008613fa2565b5b835b81811015614032578061401e8882613fbe565b84526020840193505060208101905061400b565b5050509392505050565b600082601f83011261405157614050613ee5565b5b8135614061848260208601613fd3565b91505092915050565b600067ffffffffffffffff82111561408557614084613efb565b5b602082029050602081019050919050565b60006140a96140a48461406a565b613f5b565b905080838252602082019050602084028301858111156140cc576140cb613fa2565b5b835b818110156140f557806140e18882613d43565b8452602084019350506020810190506140ce565b5050509392505050565b600082601f83011261411457614113613ee5565b5b8135614124848260208601614096565b91505092915050565b600067ffffffffffffffff82111561414857614147613efb565b5b602082029050602081019050919050565b600061416c6141678461412d565b613f5b565b9050808382526020820190506020840283018581111561418f5761418e613fa2565b5b835b818110156141b857806141a48882613cb4565b845260208401935050602081019050614191565b5050509392505050565b600082601f8301126141d7576141d6613ee5565b5b81356141e7848260208601614159565b91505092915050565b600067ffffffffffffffff82111561420b5761420a613efb565b5b602082029050602081019050919050565b600067ffffffffffffffff82111561423757614236613efb565b5b602082029050602081019050919050565b6000819050919050565b61425b81614248565b811461426657600080fd5b50565b60008135905061427881614252565b92915050565b600061429161428c8461421c565b613f5b565b905080838252602082019050602084028301858111156142b4576142b3613fa2565b5b835b818110156142dd57806142c98882614269565b8452602084019350506020810190506142b6565b5050509392505050565b600082601f8301126142fc576142fb613ee5565b5b813561430c84826020860161427e565b91505092915050565b6000614328614323846141f0565b613f5b565b9050808382526020820190506020840283018581111561434b5761434a613fa2565b5b835b8181101561439257803567ffffffffffffffff8111156143705761436f613ee5565b5b80860161437d89826142e7565b8552602085019450505060208101905061434d565b5050509392505050565b600082601f8301126143b1576143b0613ee5565b5b81356143c1848260208601614315565b91505092915050565b600080600080608085870312156143e4576143e3613c86565b5b600085013567ffffffffffffffff81111561440257614401613c8b565b5b61440e8782880161403c565b945050602085013567ffffffffffffffff81111561442f5761442e613c8b565b5b61443b878288016140ff565b935050604085013567ffffffffffffffff81111561445c5761445b613c8b565b5b614468878288016141c2565b925050606085013567ffffffffffffffff81111561448957614488613c8b565b5b6144958782880161439c565b91505092959194509250565b6000602082840312156144b7576144b6613c86565b5b60006144c584828501613d0d565b91505092915050565b60006020820190506144e36000830184613d98565b92915050565b600081519050919050565b600082825260208201905092915050565b6000819050602082019050919050565b61451e81613c90565b82525050565b61452d81613dce565b82525050565b6040820160008201516145496000850182614515565b50602082015161455c6020850182614524565b50505050565b600061456e8383614533565b60408301905092915050565b6000602082019050919050565b6000614592826144e9565b61459c81856144f4565b93506145a783614505565b8060005b838110156145d85781516145bf8882614562565b97506145ca8361457a565b9250506001810190506145ab565b5085935050505092915050565b600060208201905081810360008301526145ff8184614587565b905092915050565b600080600080600060a0868803121561462357614622613c86565b5b600061463188828901613fbe565b955050602061464288828901613d43565b945050604061465388828901613cb4565b935050606086013567ffffffffffffffff81111561467457614673613c8b565b5b614680888289016142e7565b925050608061469188828901613cb4565b9150509295509295909350565b6000602082840312156146b4576146b3613c86565b5b60006146c284828501614269565b91505092915050565b600082825260208201905092915050565b7f43616e6e6f74207265706f72742041464b20706c61796572206e6f7700000000600082015250565b6000614712601c836146cb565b915061471d826146dc565b602082019050919050565b6000602082019050818103600083015261474181614705565b9050919050565b7f4e487b7100000000000000000000000000000000000000000000000000000000600052601160045260246000fd5b600061478282613d22565b915061478d83613d22565b92508282019050808211156147a5576147a4614748565b5b92915050565b7f53686f756c64207061792065786163746c79207468652061677265656420616d60008201527f6f756e7400000000000000000000000000000000000000000000000000000000602082015250565b60006148076024836146cb565b9150614812826147ab565b604082019050919050565b60006020820190508181036000830152614836816147fa565b9050919050565b7f416d6f756e7420696e76616c6964206f7220646f6573206e6f74206d61746368600082015250565b60006148736020836146cb565b915061487e8261483d565b602082019050919050565b600060208201905081810360008301526148a281614866565b9050919050565b7f4e487b7100000000000000000000000000000000000000000000000000000000600052603260045260246000fd5b60006148e382613c90565b915060ff82036148f6576148f5614748565b5b600182019050919050565b600061490c82613d22565b91507fffffffffffffffffffffffffffffffffffffffffffffffffffffffffffffffff820361493e5761493d614748565b5b600182019050919050565b600061495482613c90565b915061495f83613c90565b9250828201905060ff81111561497857614977614748565b5b92915050565b600061498982613d22565b915061499483613d22565b92508282039050818111156149ac576149ab614748565b5b92915050565b7f4e487b7100000000000000000000000000000000000000000000000000000000600052600160045260246000fd5b7f496e76616c696420696e64657800000000000000000000000000000000000000600082015250565b6000614a17600d836146cb565b9150614a22826149e1565b602082019050919050565b60006020820190508181036000830152614a4681614a0a565b9050919050565b7f596f75206861766520616c7265616420636f6d6d697474656420796f7572206260008201527f6f61726421000000000000000000000000000000000000000000000000000000602082015250565b6000614aa96025836146cb565b9150614ab482614a4d565b604082019050919050565b60006020820190508181036000830152614ad881614a9c565b9050919050565b7f596f75206861766520616c72656164792073686f7420746861742063656c6c00600082015250565b6000614b15601f836146cb565b9150614b2082614adf565b602082019050919050565b60006020820190508181036000830152614b4481614b08565b9050919050565b7f43656c6c20697320696e76616c69640000000000000000000000000000000000600082015250565b6000614b81600f836146cb565b9150614b8c82614b4b565b602082019050919050565b60006020820190508181036000830152614bb081614b74565b9050919050565b6000606082019050614bcc6000830186613e64565b614bd96020830185613e8e565b614be66040830184613d98565b949350505050565b6000819050919050565b614c09614c0482614248565b614bee565b82525050565b6000614c1b8284614bf8565b6020820191508190509291505056fea2646970667358221220c2a1e4e7d4f5da9e6e67958275ed7820456cf44a4eb8f3dab660f945124f0cd164736f6c63430008110033",
  "immutableReferences": {},
  "source": "// SPDX-License-Identifier: MIT\npragma solidity >=0.4.22 <0.9.0;\n\nimport \"@openzeppelin/contracts/utils/cryptography/MerkleProof.sol\";\n\ncontract BattleshipGame {\n    // Possible phases for a game\n    enum Phase {\n        WaitingForPlayer,\n        BetAgreement,\n        WaitingFunds,\n        Placement,\n        Attack,\n        Winner,\n        WinnerVerified,\n        End\n    }\n\n    // Total number of cells per board\n    uint8 public constant CELLS_BOARD = 8 * 8;\n\n    // No hard requirements on the fleet composition: a player may decide to have it all 1x1 ships\n    // This is a simplifying assumption, as checking for the correctness of a precise fleet composition\n    // is very inefficient computationally-wise (fastly growing tree).\n    // A possible solution may be to represent ships as triples (position, direction, size),\n    // but this would complicate merkle proofs greatly.\n    uint8 public constant SHIP_CELLS_BOARD = 10;\n\n    // Possible outcomes for a shot: not shot, shot taken (awaiting confirmation),\n    // hit or miss. None is also the Solidity default value zero (no need for initialization).\n    enum ShotType {\n        None,\n        Taken,\n        Hit,\n        Miss\n    }\n\n    struct Shot {\n        uint8 index;\n        ShotType typ;\n    }\n\n    //\n    //\n    // storage variables\n    //\n    //\n\n    // Contract that created this contract\n    address public owner;\n\n    // Players of the game\n    // PlayerOne is always the one who create the game (saves a few bytes of space)\n    address public playerOne;\n    address public playerTwo;\n\n    // Current phase of the game\n    Phase public currentPhase;\n\n    // Address of the player reported as AFK\n    address public AFKPlayer;\n    // Block number after which the AFKPlayer is considered AFK, and its opponent the winner\n    uint public timeout;\n\n    // Following amounts are all in wei\n    // Contains the association between a player and its proposed bet.\n    mapping(address => uint256) public proposedBets;\n    // Final bet agreement\n    uint256 public agreedBetAmount;\n\n    // Whether a player has paied the agree amount\n    mapping(address => bool) public playerPaid;\n\n    // Players boards Merkle tree root\n    mapping(address => bytes32) playerBoardMerkleRoot;\n\n    // Whose player turn is the current one\n    address public playerTurn;\n\n    // Maps the shots that each player has taken\n    mapping(address => mapping(uint8 => bool)) public shotsTakenMap;\n    mapping(address => Shot[]) public shotsTaken;\n\n    // Maps a player address to the number of ships its opponent has hit\n    mapping(address => uint8) public hits;\n\n    // Winner of the game. Allows the winner to withdraw its price\n    address public winner;\n\n    //\n    //\n    // events\n    //\n    //\n\n    // Emitted when a player reports the opponent as AFK\n    event AFKWarning(address indexed player);\n\n    // Emitted when a player proposed an amount for the bet\n    event BetProposal(address indexed player, uint256 amount);\n\n    // Emitted when players have agreed on the bet amount\n    event BetAgreed(uint256 amount);\n\n    // Emitted when both players have deposited `agreedBetAmount` in the contract\n    event FundsDeposited();\n\n    // Emitted when both players have committed their board (e.g. have sent\n    // the Merkle root of their board)\n    event BoardsCommitted();\n\n    // Informs the opponent that cell `cell` has been shot\n    // In most cases, this also means that the opponent\n    // checked the previous shot result\n    event ShotTaken(address indexed player, uint8 cell);\n\n    // Winner of the game\n    // The winner still needs to send his board to the contract for verification\n    event Winner(address player);\n\n    // Winner has been correctly verified to be player\n    event WinnerVerified(address player);\n\n    //\n    //\n    // modifiers\n    //\n    //\n\n    modifier onlyOwner() {\n        require(msg.sender == owner);\n        _;\n    }\n\n    modifier onlyPlayer() {\n        require(msg.sender == playerOne || msg.sender == playerTwo);\n        _;\n    }\n\n    modifier onlyWinner() {\n        require(msg.sender == winner);\n        _;\n    }\n\n    // Modifiers to check we are in a specific phase\n    modifier phaseWaitingForPlayer() {\n        require(currentPhase == Phase.WaitingForPlayer);\n        _;\n    }\n\n    modifier phaseBetAgreement() {\n        require(currentPhase == Phase.BetAgreement);\n        _;\n    }\n\n    modifier phaseWaitingFunds() {\n        require(currentPhase == Phase.WaitingFunds);\n        _;\n    }\n\n    modifier phasePlacement() {\n        require(currentPhase == Phase.Placement);\n        _;\n    }\n\n    modifier phaseAttack() {\n        require(currentPhase == Phase.Attack);\n        _;\n    }\n\n    modifier phaseWinner() {\n        require(currentPhase == Phase.Winner);\n        _;\n    }\n\n    modifier phaseWinnerVerified() {\n        require(currentPhase == Phase.WinnerVerified);\n        _;\n    }\n\n    modifier isPlayerTurn() {\n        require(msg.sender == playerTurn);\n        _;\n    }\n\n    modifier checkAFK() {\n        if (AFKPlayer != address(0)) {\n            // AFK player has done an action before the timer run out, safe\n            if (block.number < timeout && msg.sender == AFKPlayer) {\n                delete AFKPlayer;\n            } else if (block.number >= timeout) {\n                // No action from the AFK player was taken before the timeout\n                // The opponent wins by default\n                address opponent = AFKPlayer == playerOne\n                    ? playerTwo\n                    : playerOne;\n                emit WinnerVerified(opponent);\n                winner = opponent;\n            }\n        }\n        _;\n    }\n\n    //\n    //\n    // public functions\n    //\n    //\n\n    constructor(address _creator) {\n        owner = msg.sender;\n        playerOne = _creator;\n        currentPhase = Phase.WaitingForPlayer;\n    }\n\n    function registerPlayerTwo(\n        address _playerTwo\n    ) external onlyOwner phaseWaitingForPlayer {\n        // Set second player and move to next phase\n        playerTwo = _playerTwo;\n        currentPhase = Phase.BetAgreement;\n    }\n\n    function proposeBet(uint256 _amount) external onlyPlayer phaseBetAgreement {\n        // Set the proposed bet from player\n        proposedBets[msg.sender] = _amount;\n        emit BetProposal(msg.sender, _amount);\n    }\n\n    function acceptBet(uint256 _amount) external onlyPlayer phaseBetAgreement {\n        // Check that the amount is actually the one proposed by the other player\n        // and non-zero. Needed to avoid having a player agree to a different bet.\n        require(\n            _amount != 0 &&\n                ((msg.sender == playerOne &&\n                    proposedBets[playerTwo] == _amount) ||\n                    (msg.sender == playerTwo &&\n                        proposedBets[playerOne] == _amount)),\n            \"Amount invalid or does not match\"\n        );\n\n        // Inform players that consensus on the amount has been reached\n        emit BetAgreed(_amount);\n\n        // Save it in the state\n        agreedBetAmount = _amount;\n        currentPhase = Phase.WaitingFunds;\n    }\n\n    function reportOpponentAFK() external onlyPlayer {\n        // Issue: we want to prevent AFKing. However, this feature may be exploited to win games.\n        // For instance, it may happen that a player is accused of being AFK, but is unable\n        // to take any action, basically defaulting to a loss.\n        // We also don't want to give the player the ability to declare it is not AFK, as this may\n        // also be abused to lock the funds of the opponent until the opponent goes AFK.\n\n        // The solution implemented is the following: check that the reported player can do an action.\n        // If not, disallow reporting it for AFK. This approach, as error prone as it may be, is likely\n        // the best one if implemented correctly.\n        address opponent = msg.sender == playerOne ? playerTwo : playerOne;\n        require(\n            // First, verify that no player has been accused of being AFK currently\n            AFKPlayer == address(0) &&\n                // Disallow reporting on some phases\n                (currentPhase != Phase.WaitingForPlayer &&\n                    currentPhase != Phase.WinnerVerified &&\n                    currentPhase != Phase.End) &&\n                // If reported in the betting phase, check that player reporting has already bet and opponent hasn't\n                ((currentPhase == Phase.WaitingFunds &&\n                    playerPaid[msg.sender] &&\n                    !playerPaid[opponent]) ||\n                    // If reported during placement, check that opponent hasn't committed its board yet\n                    (currentPhase == Phase.Placement &&\n                        playerBoardMerkleRoot[opponent] == 0) ||\n                    // If reported during attack phase, check that it is the opponent's turn\n                    (currentPhase == Phase.Attack && playerTurn == opponent) ||\n                    // Also allow reporting during board checking phase\n                    (currentPhase == Phase.Winner)),\n            \"Cannot report AFK player now\"\n        );\n\n        emit AFKWarning(opponent);\n        AFKPlayer = opponent;\n        timeout = block.number + 5;\n    }\n\n    // It is also possible that the AFK player is the only player that can take action\n    // In this case, it would be impossible to claim the funds, thus the need of this function\n    function verifyOpponentAFK() external onlyPlayer {\n        require(AFKPlayer != address(0));\n\n        if (block.number >= timeout) {\n            // No action from the AFK player was taken before the timeout\n            // The opponent wins by default\n            address opponent = AFKPlayer == playerOne ? playerTwo : playerOne;\n            emit WinnerVerified(opponent);\n            winner = opponent;\n        }\n    }\n\n    function betFunds() external payable onlyPlayer phaseWaitingFunds checkAFK {\n        require(\n            !playerPaid[msg.sender] && msg.value == agreedBetAmount,\n            \"Should pay exactly the agreed amount\"\n        );\n\n        // Record that the player has paid\n        playerPaid[msg.sender] = true;\n\n        // If both have paid, move on to the next phase (placement)\n        if (playerPaid[playerOne] && playerPaid[playerTwo]) {\n            emit FundsDeposited();\n            currentPhase = Phase.Placement;\n        }\n    }\n\n    function commitBoard(\n        bytes32 merkleTreeRoot\n    ) external onlyPlayer phasePlacement checkAFK {\n        require(\n            playerBoardMerkleRoot[msg.sender] == 0,\n            \"You have alread committed your board!\"\n        );\n\n        // Save the Merkle root of the player\n        playerBoardMerkleRoot[msg.sender] = merkleTreeRoot;\n\n        // If both have committed their board, move on to the next phase (attack)\n        if (\n            playerBoardMerkleRoot[playerOne] != 0 &&\n            playerBoardMerkleRoot[playerTwo] != 0\n        ) {\n            emit BoardsCommitted();\n            currentPhase = Phase.Attack;\n\n            // PlayerOne decided the size of the board, thus we let playerTwo\n            // have the first turn in the attack phase\n            playerTurn = playerTwo;\n        }\n    }\n\n    function getShotsTaken(\n        address player\n    ) external view returns (Shot[] memory) {\n        return shotsTaken[player];\n    }\n\n    // isPlayerTurn allows a subset of addresses wrt to isPlayer, therefore we\n    // don't need both here\n    function attack(uint8 _index) external phaseAttack isPlayerTurn checkAFK {\n        _attack(_index);\n    }\n\n    // Only the first attack is *only* an attack\n    // We can save a transaction by doing both checking and attacking at\n    // the same time\n    function checkAndAttack(\n        bool _isShip,\n        uint256 _salt,\n        uint8 _index,\n        bytes32[] memory _proof,\n        uint8 _attackIndex\n    ) external phaseAttack isPlayerTurn checkAFK {\n        address opponent = msg.sender == playerOne ? playerTwo : playerOne;\n        uint last = shotsTaken[opponent].length - 1;\n        assert(shotsTaken[opponent][last].typ == ShotType.Taken);\n        require(shotsTaken[opponent][last].index == _index, \"Invalid index\");\n\n        if (\n            !_checkProof(\n                _isShip,\n                _salt,\n                _index,\n                _proof,\n                playerBoardMerkleRoot[msg.sender]\n            )\n        ) {\n            // Player has attempted cheating, thus opponent wins by default\n            // without even checking its board\n            emit WinnerVerified(opponent);\n            currentPhase = Phase.WinnerVerified;\n            winner = opponent;\n            return;\n        }\n\n        if (_isShip) {\n            shotsTaken[opponent][last].typ = ShotType.Hit;\n            hits[msg.sender]++;\n\n            // If the opponent has hit all of our ships,\n            // the opponent wins\n            if (hits[msg.sender] == SHIP_CELLS_BOARD) {\n                emit Winner(opponent);\n                winner = opponent;\n                currentPhase = Phase.Winner;\n                return;\n            }\n        } else {\n            shotsTaken[opponent][last].typ = ShotType.Miss;\n        }\n\n        _attack(_attackIndex);\n    }\n\n    function checkWinnerBoard(\n        bool[] memory _board,\n        uint256[] memory _salts,\n        uint8[] memory _indexes,\n        bytes32[][] memory _proofs\n    ) external phaseWinner onlyWinner checkAFK {\n        require(_board.length == _salts.length);\n        require(_board.length == _proofs.length);\n\n        address opponent = msg.sender == playerOne ? playerTwo : playerOne;\n\n        // The winner is required to send the proofs for the cells that he hasn't given a proof yet\n        // First, we verify that the whole board is verified to belong to the Merkle tree\n        // We also check that no indexes are re-used. To do so, we re-use shotsTakenMap.\n        uint8 ships = 0;\n        for (uint i = 0; i < _board.length; i++) {\n            if (\n                !_checkProof(\n                    _board[i],\n                    _salts[i],\n                    _indexes[i],\n                    _proofs[i],\n                    playerBoardMerkleRoot[msg.sender]\n                ) || shotsTakenMap[opponent][_indexes[i]]\n            ) {\n                // Player submitted a fake proof or an index that was already checked\n                // This could happen as a client implementation error, but in most cases\n                // this is due to a cheating attempt\n                emit WinnerVerified(opponent);\n                winner = opponent;\n                return;\n            }\n\n            shotsTakenMap[opponent][_indexes[i]] = true;\n            if (_board[i]) {\n                ships++;\n            }\n        }\n\n        // Verify that every cell has been checked\n        for (uint8 i = 0; i < CELLS_BOARD; i++) {\n            if (!shotsTakenMap[opponent][i]) {\n                // Player attempted cheating by not submitting all missing cells\n                emit WinnerVerified(opponent);\n                winner = opponent;\n                return;\n            }\n        }\n\n        // Check that the required number of ships was placed\n        if (ships + hits[msg.sender] == SHIP_CELLS_BOARD) {\n            emit WinnerVerified(msg.sender);\n        } else {\n            // placement is invalid, player cheated!\n            emit WinnerVerified(opponent);\n            winner = opponent;\n        }\n        currentPhase = Phase.WinnerVerified;\n    }\n\n    function withdraw() external phaseWinnerVerified onlyWinner {\n        payable(msg.sender).transfer(address(this).balance);\n        currentPhase = Phase.End;\n    }\n\n    //\n    //\n    // helpers\n    //\n    //\n\n    function _attack(uint8 _index) internal {\n        // Check the selected cell is valid for the current board\n        //  - not already shot\n        //  - in a valid range (i.e. inside the boards boundaries, which depend\n        //    on the boardSize)\n        require(\n            shotsTakenMap[msg.sender][_index] == false,\n            \"You have already shot that cell\"\n        );\n        require((_index < CELLS_BOARD), \"Cell is invalid\");\n\n        // Set the shot as taken\n        shotsTakenMap[msg.sender][_index] = true;\n        shotsTaken[msg.sender].push(Shot(_index, ShotType.Taken));\n\n        // Notify opponent of the shot\n        emit ShotTaken(msg.sender, _index);\n\n        // Other player turn now\n        playerTurn = playerTurn == playerOne ? playerTwo : playerOne;\n    }\n\n    function _checkProof(\n        bool _isShip,\n        uint256 _salt,\n        uint8 _index,\n        bytes32[] memory _proof,\n        bytes32 _root\n    ) internal pure returns (bool) {\n        bytes32 leaf = keccak256(\n            bytes.concat(keccak256(abi.encode(_isShip, _salt, _index)))\n        );\n\n        return MerkleProof.verify(_proof, _root, leaf);\n    }\n}\n",
  "sourcePath": "/home/kalex/Projects/P2P_blockchain/battleship/contracts/BattleshipGame.sol",
  "compiler": {
    "name": "solc",
    "version": "0.8.17+commit.8df45f5f.Emscripten.clang"
  },
  "schemaVersion": "3.4.11",
  "updatedAt": "2023-05-22T08:09:36.453Z",
  "devdoc": {
    "kind": "dev",
    "methods": {},
    "version": 1
  },
  "userdoc": {
    "kind": "user",
    "methods": {},
    "version": 1
  }
}