{
  "contractName": "Battleship",
  "abi": [
    {
      "anonymous": false,
      "inputs": [
        {
          "indexed": true,
          "internalType": "address",
          "name": "player",
          "type": "address"
        },
        {
          "indexed": true,
          "internalType": "contract BattleshipGame",
          "name": "game",
          "type": "address"
        }
      ],
      "name": "JoinGame",
      "type": "event"
    },
    {
      "anonymous": false,
      "inputs": [
        {
          "indexed": true,
          "internalType": "address",
          "name": "creator",
          "type": "address"
        },
        {
          "indexed": false,
          "internalType": "contract BattleshipGame",
          "name": "game",
          "type": "address"
        }
      ],
      "name": "NewGame",
      "type": "event"
    },
    {
      "anonymous": false,
      "inputs": [
        {
          "indexed": true,
          "internalType": "address",
          "name": "player",
          "type": "address"
        }
      ],
      "name": "NoGame",
      "type": "event"
    },
    {
      "inputs": [],
      "name": "createGame",
      "outputs": [],
      "stateMutability": "nonpayable",
      "type": "function"
    },
    {
      "inputs": [
        {
          "internalType": "contract BattleshipGame",
          "name": "_game",
          "type": "address"
        }
      ],
      "name": "joinGameByID",
      "outputs": [],
      "stateMutability": "nonpayable",
      "type": "function"
    },
    {
      "inputs": [],
      "name": "joinRandomGame",
      "outputs": [],
      "stateMutability": "nonpayable",
      "type": "function"
    }
  ],
  "bytecode": "0x608060405234801561001057600080fd5b50615f64806100206000396000f3fe60806040523480156200001157600080fd5b5060043610620000465760003560e01c80632123bffc146200004b578063342ca184146200006b5780637255d7291462000077575b600080fd5b62000069600480360381019062000063919062000b79565b62000083565b005b62000075620002d1565b005b62000081620005ed565b005b600115156000808373ffffffffffffffffffffffffffffffffffffffff1673ffffffffffffffffffffffffffffffffffffffff16815260200190815260200160002060009054906101000a900460ff1615151462000118576040517f08c379a00000000000000000000000000000000000000000000000000000000081526004016200010f9062000c32565b60405180910390fd5b8073ffffffffffffffffffffffffffffffffffffffff1663bcffcf416040518163ffffffff1660e01b8152600401602060405180830381865afa15801562000164573d6000803e3d6000fd5b505050506040513d601f19601f820116820180604052508101906200018a919062000c85565b73ffffffffffffffffffffffffffffffffffffffff163373ffffffffffffffffffffffffffffffffffffffff1603620001fa576040517f08c379a0000000000000000000000000000000000000000000000000000000008152600401620001f19062000d2d565b60405180910390fd5b8073ffffffffffffffffffffffffffffffffffffffff1663855e26f5336040518263ffffffff1660e01b815260040162000235919062000d60565b600060405180830381600087803b1580156200025057600080fd5b505af115801562000265573d6000803e3d6000fd5b50505050620002748162000688565b8073ffffffffffffffffffffffffffffffffffffffff163373ffffffffffffffffffffffffffffffffffffffff167f07b29210dc1c79e9a69cc69e470ffe66a4cac664f90d5aae30dc519c5c78e53e60405160405180910390a350565b6000600180549050116200031c576040517f08c379a0000000000000000000000000000000000000000000000000000000008152600401620003139062000dcd565b60405180910390fd5b600060018054905060014362000333919062000e28565b40336003546040516020016200034c9392919062000f07565b6040516020818303038152906040528051906020012060001c62000371919062000f79565b905060036000815480929190620003889062000fb1565b91905055506000805b6001805490508110156200059e576000600180805490508386620003b6919062000ffe565b620003c2919062000f79565b81548110620003d657620003d562001039565b5b9060005260206000200160009054906101000a900473ffffffffffffffffffffffffffffffffffffffff1690503373ffffffffffffffffffffffffffffffffffffffff168173ffffffffffffffffffffffffffffffffffffffff1663bcffcf416040518163ffffffff1660e01b8152600401602060405180830381865afa15801562000466573d6000803e3d6000fd5b505050506040513d601f19601f820116820180604052508101906200048c919062000c85565b73ffffffffffffffffffffffffffffffffffffffff16146200058757600192508073ffffffffffffffffffffffffffffffffffffffff1663855e26f5336040518263ffffffff1660e01b8152600401620004e7919062000d60565b600060405180830381600087803b1580156200050257600080fd5b505af115801562000517573d6000803e3d6000fd5b50505050620005268162000688565b8073ffffffffffffffffffffffffffffffffffffffff163373ffffffffffffffffffffffffffffffffffffffff167f07b29210dc1c79e9a69cc69e470ffe66a4cac664f90d5aae30dc519c5c78e53e60405160405180910390a3506200059e565b508080620005959062000fb1565b91505062000391565b5080620005e9573373ffffffffffffffffffffffffffffffffffffffff167fe2fe41c4bd195a4573c815ce24df9bdab82f85913f56314cd3225ce056ffb38360405160405180910390a25b5050565b600033604051620005fe9062000aed565b6200060a919062000d60565b604051809103906000f08015801562000627573d6000803e3d6000fd5b5090506200063581620009da565b3373ffffffffffffffffffffffffffffffffffffffff167fd1af9b1127c37da1f8a3d2e4e7d92bcbfa7bfa2ccf9ce1d29530052e366cc901826040516200067d9190620010d3565b60405180910390a250565b600115156000808373ffffffffffffffffffffffffffffffffffffffff1673ffffffffffffffffffffffffffffffffffffffff16815260200190815260200160002060009054906101000a900460ff16151514620006eb57620006ea620010f0565b5b600060018054905011620007045762000703620010f0565b5b6000808273ffffffffffffffffffffffffffffffffffffffff1673ffffffffffffffffffffffffffffffffffffffff16815260200190815260200160002060006101000a81549060ff02191690556000600260008373ffffffffffffffffffffffffffffffffffffffff1673ffffffffffffffffffffffffffffffffffffffff168152602001908152602001600020549050600180805490501480620007bb575060018080549050620007b8919062000e28565b81145b1562000811576001805480620007d657620007d56200111f565b5b6001900381819060005260206000200160006101000a81549073ffffffffffffffffffffffffffffffffffffffff0219169055905562000993565b600180808054905062000825919062000e28565b8154811062000839576200083862001039565b5b9060005260206000200160009054906101000a900473ffffffffffffffffffffffffffffffffffffffff16600182815481106200087b576200087a62001039565b5b9060005260206000200160006101000a81548173ffffffffffffffffffffffffffffffffffffffff021916908373ffffffffffffffffffffffffffffffffffffffff1602179055506001805480620008d857620008d76200111f565b5b6001900381819060005260206000200160006101000a81549073ffffffffffffffffffffffffffffffffffffffff0219169055905580600260006001848154811062000929576200092862001039565b5b9060005260206000200160009054906101000a900473ffffffffffffffffffffffffffffffffffffffff1673ffffffffffffffffffffffffffffffffffffffff1673ffffffffffffffffffffffffffffffffffffffff168152602001908152602001600020819055505b600260008373ffffffffffffffffffffffffffffffffffffffff1673ffffffffffffffffffffffffffffffffffffffff168152602001908152602001600020600090555050565b60016000808373ffffffffffffffffffffffffffffffffffffffff1673ffffffffffffffffffffffffffffffffffffffff16815260200190815260200160002060006101000a81548160ff0219169083151502179055506001819080600181540180825580915050600190039060005260206000200160009091909190916101000a81548173ffffffffffffffffffffffffffffffffffffffff021916908373ffffffffffffffffffffffffffffffffffffffff1602179055506001808054905062000aa7919062000e28565b600260008373ffffffffffffffffffffffffffffffffffffffff1673ffffffffffffffffffffffffffffffffffffffff1681526020019081526020016000208190555050565b614de0806200114f83390190565b600080fd5b600073ffffffffffffffffffffffffffffffffffffffff82169050919050565b600062000b2d8262000b00565b9050919050565b600062000b418262000b20565b9050919050565b62000b538162000b34565b811462000b5f57600080fd5b50565b60008135905062000b738162000b48565b92915050565b60006020828403121562000b925762000b9162000afb565b5b600062000ba28482850162000b62565b91505092915050565b600082825260208201905092915050565b7f47616d6520646f6573206e6f74206578697374206f722063616e6e6f7420626560008201527f206a6f696e656400000000000000000000000000000000000000000000000000602082015250565b600062000c1a60278362000bab565b915062000c278262000bbc565b604082019050919050565b6000602082019050818103600083015262000c4d8162000c0b565b9050919050565b62000c5f8162000b20565b811462000c6b57600080fd5b50565b60008151905062000c7f8162000c54565b92915050565b60006020828403121562000c9e5762000c9d62000afb565b5b600062000cae8482850162000c6e565b91505092915050565b7f49742773206b696e64612073616420746f20706c617920616c6f6e652c20697360008201527f6e27742069743f00000000000000000000000000000000000000000000000000602082015250565b600062000d1560278362000bab565b915062000d228262000cb7565b604082019050919050565b6000602082019050818103600083015262000d488162000d06565b9050919050565b62000d5a8162000b20565b82525050565b600060208201905062000d77600083018462000d4f565b92915050565b7f5468657265206973206e6f206a6f696e61626c652067616d6500000000000000600082015250565b600062000db560198362000bab565b915062000dc28262000d7d565b602082019050919050565b6000602082019050818103600083015262000de88162000da6565b9050919050565b6000819050919050565b7f4e487b7100000000000000000000000000000000000000000000000000000000600052601160045260246000fd5b600062000e358262000def565b915062000e428362000def565b925082820390508181111562000e5d5762000e5c62000df9565b5b92915050565b6000819050919050565b6000819050919050565b62000e8c62000e868262000e63565b62000e6d565b82525050565b60008160601b9050919050565b600062000eac8262000e92565b9050919050565b600062000ec08262000e9f565b9050919050565b62000edc62000ed68262000b20565b62000eb3565b82525050565b6000819050919050565b62000f0162000efb8262000def565b62000ee2565b82525050565b600062000f15828662000e77565b60208201915062000f27828562000ec7565b60148201915062000f39828462000eec565b602082019150819050949350505050565b7f4e487b7100000000000000000000000000000000000000000000000000000000600052601260045260246000fd5b600062000f868262000def565b915062000f938362000def565b92508262000fa65762000fa562000f4a565b5b828206905092915050565b600062000fbe8262000def565b91507fffffffffffffffffffffffffffffffffffffffffffffffffffffffffffffffff820362000ff35762000ff262000df9565b5b600182019050919050565b60006200100b8262000def565b9150620010188362000def565b925082820190508082111562001033576200103262000df9565b5b92915050565b7f4e487b7100000000000000000000000000000000000000000000000000000000600052603260045260246000fd5b6000819050919050565b6000620010936200108d620010878462000b00565b62001068565b62000b00565b9050919050565b6000620010a78262001072565b9050919050565b6000620010bb826200109a565b9050919050565b620010cd81620010ae565b82525050565b6000602082019050620010ea6000830184620010c2565b92915050565b7f4e487b7100000000000000000000000000000000000000000000000000000000600052600160045260246000fd5b7f4e487b7100000000000000000000000000000000000000000000000000000000600052603160045260246000fdfe60806040523480156200001157600080fd5b5060405162004de038038062004de0833981810160405281019062000037919062000157565b336000806101000a81548173ffffffffffffffffffffffffffffffffffffffff021916908373ffffffffffffffffffffffffffffffffffffffff16021790555080600160006101000a81548173ffffffffffffffffffffffffffffffffffffffff021916908373ffffffffffffffffffffffffffffffffffffffff1602179055506000600260146101000a81548160ff02191690836007811115620000e157620000e062000189565b5b021790555050620001b8565b600080fd5b600073ffffffffffffffffffffffffffffffffffffffff82169050919050565b60006200011f82620000f2565b9050919050565b620001318162000112565b81146200013d57600080fd5b50565b600081519050620001518162000126565b92915050565b60006020828403121562000170576200016f620000ed565b5b6000620001808482850162000140565b91505092915050565b7f4e487b7100000000000000000000000000000000000000000000000000000000600052602160045260246000fd5b614c1880620001c86000396000f3fe6080604052600436106101b75760003560e01c8063855e26f5116100ec578063d43faafd1161008a578063e75e0e5b11610064578063e75e0e5b146105a6578063ea66144a146105cf578063eca03302146105f8578063fdf3a8f414610635576101b7565b8063d43faafd14610515578063dfbf53ae1461053e578063e65e849214610569576101b7565b8063b7ba4b7e116100c6578063b7ba4b7e14610457578063b93e709714610494578063bcffcf41146104bf578063d30074d9146104ea576101b7565b8063855e26f5146103d85780638da5cb5b14610401578063ad487d171461042c576101b7565b806338dca7f2116101595780636c0c27e1116101335780636c0c27e1146103445780636ef3989f1461036d57806370dea79a14610396578063720cc186146103c1576101b7565b806338dca7f2146102d75780633ccfd60b14610302578063456bc02e14610319576101b7565b80631999eca8116101955780631999eca8146102295780631e20ddab146102525780632f4549bb1461025c57806333bda0f41461029a576101b7565b8063055ad42e146101bc5780630a9f85dd146101e757806316774d8c14610212575b600080fd5b3480156101c857600080fd5b506101d1610672565b6040516101de9190613c29565b60405180910390f35b3480156101f357600080fd5b506101fc610685565b6040516102099190613c85565b60405180910390f35b34801561021e57600080fd5b506102276106ab565b005b34801561023557600080fd5b50610250600480360381019061024b9190613ced565b610c90565b005b61025a610f65565b005b34801561026857600080fd5b50610283600480360381019061027e9190613d7c565b6114bd565b604051610291929190613e13565b60405180910390f35b3480156102a657600080fd5b506102c160048036038101906102bc9190613e3c565b611514565b6040516102ce9190613e97565b60405180910390f35b3480156102e357600080fd5b506102ec611543565b6040516102f99190613c85565b60405180910390f35b34801561030e57600080fd5b50610317611569565b005b34801561032557600080fd5b5061032e611677565b60405161033b9190613ec1565b60405180910390f35b34801561035057600080fd5b5061036b60048036038101906103669190613edc565b61167d565b005b34801561037957600080fd5b50610394600480360381019061038f91906143ee565b6119a7565b005b3480156103a257600080fd5b506103ab612225565b6040516103b89190613ec1565b60405180910390f35b3480156103cd57600080fd5b506103d661222b565b005b3480156103e457600080fd5b506103ff60048036038101906103fa91906144c5565b612484565b005b34801561040d57600080fd5b5061041661258b565b6040516104239190613c85565b60405180910390f35b34801561043857600080fd5b506104416125af565b60405161044e91906144f2565b60405180910390f35b34801561046357600080fd5b5061047e600480360381019061047991906144c5565b6125b4565b60405161048b9190613ec1565b60405180910390f35b3480156104a057600080fd5b506104a96125cc565b6040516104b691906144f2565b60405180910390f35b3480156104cb57600080fd5b506104d46125d1565b6040516104e19190613c85565b60405180910390f35b3480156104f657600080fd5b506104ff6125f7565b60405161050c9190613c85565b60405180910390f35b34801561052157600080fd5b5061053c60048036038101906105379190613edc565b61261d565b005b34801561054a57600080fd5b506105536127a4565b6040516105609190613c85565b60405180910390f35b34801561057557600080fd5b50610590600480360381019061058b91906144c5565b6127ca565b60405161059d9190614609565b60405180910390f35b3480156105b257600080fd5b506105cd60048036038101906105c8919061462b565b6128bc565b005b3480156105db57600080fd5b506105f660048036038101906105f191906146c2565b61313a565b005b34801561060457600080fd5b5061061f600480360381019061061a91906144c5565b6136be565b60405161062c9190613e97565b60405180910390f35b34801561064157600080fd5b5061065c600480360381019061065791906144c5565b6136de565b60405161066991906144f2565b60405180910390f35b600260149054906101000a900460ff1681565b600260009054906101000a900473ffffffffffffffffffffffffffffffffffffffff1681565b600160009054906101000a900473ffffffffffffffffffffffffffffffffffffffff1673ffffffffffffffffffffffffffffffffffffffff163373ffffffffffffffffffffffffffffffffffffffff1614806107545750600260009054906101000a900473ffffffffffffffffffffffffffffffffffffffff1673ffffffffffffffffffffffffffffffffffffffff163373ffffffffffffffffffffffffffffffffffffffff16145b61075d57600080fd5b6000600160009054906101000a900473ffffffffffffffffffffffffffffffffffffffff1673ffffffffffffffffffffffffffffffffffffffff163373ffffffffffffffffffffffffffffffffffffffff16146107dc57600160009054906101000a900473ffffffffffffffffffffffffffffffffffffffff16610800565b600260009054906101000a900473ffffffffffffffffffffffffffffffffffffffff165b9050600073ffffffffffffffffffffffffffffffffffffffff16600360009054906101000a900473ffffffffffffffffffffffffffffffffffffffff1673ffffffffffffffffffffffffffffffffffffffff1614801561091357506000600781111561086f5761086e613bb2565b5b600260149054906101000a900460ff16600781111561089157610890613bb2565b5b141580156108d35750600660078111156108ae576108ad613bb2565b5b600260149054906101000a900460ff1660078111156108d0576108cf613bb2565b5b14155b801561091257506007808111156108ed576108ec613bb2565b5b600260149054906101000a900460ff16600781111561090f5761090e613bb2565b5b14155b5b8015610bb757506002600781111561092e5761092d613bb2565b5b600260149054906101000a900460ff1660078111156109505761094f613bb2565b5b1480156109a65750600760003373ffffffffffffffffffffffffffffffffffffffff1673ffffffffffffffffffffffffffffffffffffffff16815260200190815260200160002060009054906101000a900460ff165b80156109fc5750600760008273ffffffffffffffffffffffffffffffffffffffff1673ffffffffffffffffffffffffffffffffffffffff16815260200190815260200160002060009054906101000a900460ff16155b80610a87575060036007811115610a1657610a15613bb2565b5b600260149054906101000a900460ff166007811115610a3857610a37613bb2565b5b148015610a8657506000801b600860008373ffffffffffffffffffffffffffffffffffffffff1673ffffffffffffffffffffffffffffffffffffffff16815260200190815260200160002054145b5b80610b1e575060046007811115610aa157610aa0613bb2565b5b600260149054906101000a900460ff166007811115610ac357610ac2613bb2565b5b148015610b1d57508073ffffffffffffffffffffffffffffffffffffffff16600960009054906101000a900473ffffffffffffffffffffffffffffffffffffffff1673ffffffffffffffffffffffffffffffffffffffff16145b5b80610bb6575060056007811115610b3857610b37613bb2565b5b600260149054906101000a900460ff166007811115610b5a57610b59613bb2565b5b148015610bb55750600d60009054906101000a900473ffffffffffffffffffffffffffffffffffffffff1673ffffffffffffffffffffffffffffffffffffffff163373ffffffffffffffffffffffffffffffffffffffff1614155b5b5b610bf6576040517f08c379a0000000000000000000000000000000000000000000000000000000008152600401610bed9061474c565b60405180910390fd5b8073ffffffffffffffffffffffffffffffffffffffff167fd9c9e1f2d0582f5b81aa2adf7d67d67d8a5a36c62b9e2c274b2053f67bc389d860405160405180910390a280600360006101000a81548173ffffffffffffffffffffffffffffffffffffffff021916908373ffffffffffffffffffffffffffffffffffffffff160217905550600543610c87919061479b565b60048190555050565b60046007811115610ca457610ca3613bb2565b5b600260149054906101000a900460ff166007811115610cc657610cc5613bb2565b5b14610cd057600080fd5b600960009054906101000a900473ffffffffffffffffffffffffffffffffffffffff1673ffffffffffffffffffffffffffffffffffffffff163373ffffffffffffffffffffffffffffffffffffffff1614610d2a57600080fd5b600073ffffffffffffffffffffffffffffffffffffffff16600360009054906101000a900473ffffffffffffffffffffffffffffffffffffffff1673ffffffffffffffffffffffffffffffffffffffff1614610f595760045443108015610dde5750600360009054906101000a900473ffffffffffffffffffffffffffffffffffffffff1673ffffffffffffffffffffffffffffffffffffffff163373ffffffffffffffffffffffffffffffffffffffff16145b15610e0d57600360006101000a81549073ffffffffffffffffffffffffffffffffffffffff0219169055610f58565b6004544310610f57576000600160009054906101000a900473ffffffffffffffffffffffffffffffffffffffff1673ffffffffffffffffffffffffffffffffffffffff16600360009054906101000a900473ffffffffffffffffffffffffffffffffffffffff1673ffffffffffffffffffffffffffffffffffffffff1614610eb757600160009054906101000a900473ffffffffffffffffffffffffffffffffffffffff16610edb565b600260009054906101000a900473ffffffffffffffffffffffffffffffffffffffff165b90507fe48a335438ec9cf1059d7b134553ca861398a18d023bd34b9e4d956f5f7ba00481604051610f0c9190613c85565b60405180910390a180600d60006101000a81548173ffffffffffffffffffffffffffffffffffffffff021916908373ffffffffffffffffffffffffffffffffffffffff160217905550505b5b5b610f62816136fe565b50565b600160009054906101000a900473ffffffffffffffffffffffffffffffffffffffff1673ffffffffffffffffffffffffffffffffffffffff163373ffffffffffffffffffffffffffffffffffffffff16148061100e5750600260009054906101000a900473ffffffffffffffffffffffffffffffffffffffff1673ffffffffffffffffffffffffffffffffffffffff163373ffffffffffffffffffffffffffffffffffffffff16145b61101757600080fd5b6002600781111561102b5761102a613bb2565b5b600260149054906101000a900460ff16600781111561104d5761104c613bb2565b5b1461105757600080fd5b600073ffffffffffffffffffffffffffffffffffffffff16600360009054906101000a900473ffffffffffffffffffffffffffffffffffffffff1673ffffffffffffffffffffffffffffffffffffffff1614611286576004544310801561110b5750600360009054906101000a900473ffffffffffffffffffffffffffffffffffffffff1673ffffffffffffffffffffffffffffffffffffffff163373ffffffffffffffffffffffffffffffffffffffff16145b1561113a57600360006101000a81549073ffffffffffffffffffffffffffffffffffffffff0219169055611285565b6004544310611284576000600160009054906101000a900473ffffffffffffffffffffffffffffffffffffffff1673ffffffffffffffffffffffffffffffffffffffff16600360009054906101000a900473ffffffffffffffffffffffffffffffffffffffff1673ffffffffffffffffffffffffffffffffffffffff16146111e457600160009054906101000a900473ffffffffffffffffffffffffffffffffffffffff16611208565b600260009054906101000a900473ffffffffffffffffffffffffffffffffffffffff165b90507fe48a335438ec9cf1059d7b134553ca861398a18d023bd34b9e4d956f5f7ba004816040516112399190613c85565b60405180910390a180600d60006101000a81548173ffffffffffffffffffffffffffffffffffffffff021916908373ffffffffffffffffffffffffffffffffffffffff160217905550505b5b5b600760003373ffffffffffffffffffffffffffffffffffffffff1673ffffffffffffffffffffffffffffffffffffffff16815260200190815260200160002060009054906101000a900460ff161580156112e1575060065434145b611320576040517f08c379a000000000000000000000000000000000000000000000000000000000815260040161131790614841565b60405180910390fd5b6001600760003373ffffffffffffffffffffffffffffffffffffffff1673ffffffffffffffffffffffffffffffffffffffff16815260200190815260200160002060006101000a81548160ff02191690831515021790555060076000600160009054906101000a900473ffffffffffffffffffffffffffffffffffffffff1673ffffffffffffffffffffffffffffffffffffffff1673ffffffffffffffffffffffffffffffffffffffff16815260200190815260200160002060009054906101000a900460ff16801561145e575060076000600260009054906101000a900473ffffffffffffffffffffffffffffffffffffffff1673ffffffffffffffffffffffffffffffffffffffff1673ffffffffffffffffffffffffffffffffffffffff16815260200190815260200160002060009054906101000a900460ff165b156114bb577fd2d72fde7537c550b5e85eabb70a65949c78bb66328f56c78ddc8251950a994160405160405180910390a16003600260146101000a81548160ff021916908360078111156114b5576114b4613bb2565b5b02179055505b565b600b60205281600052604060002081815481106114d957600080fd5b90600052602060002001600091509150508060000160009054906101000a900460ff16908060000160019054906101000a900460ff16905082565b600a6020528160005260406000206020528060005260406000206000915091509054906101000a900460ff1681565b600360009054906101000a900473ffffffffffffffffffffffffffffffffffffffff1681565b6006600781111561157d5761157c613bb2565b5b600260149054906101000a900460ff16600781111561159f5761159e613bb2565b5b146115a957600080fd5b600d60009054906101000a900473ffffffffffffffffffffffffffffffffffffffff1673ffffffffffffffffffffffffffffffffffffffff163373ffffffffffffffffffffffffffffffffffffffff161461160357600080fd5b3373ffffffffffffffffffffffffffffffffffffffff166108fc479081150290604051600060405180830381858888f19350505050158015611649573d6000803e3d6000fd5b506007600260146101000a81548160ff021916908360078111156116705761166f613bb2565b5b0217905550565b60065481565b600160009054906101000a900473ffffffffffffffffffffffffffffffffffffffff1673ffffffffffffffffffffffffffffffffffffffff163373ffffffffffffffffffffffffffffffffffffffff1614806117265750600260009054906101000a900473ffffffffffffffffffffffffffffffffffffffff1673ffffffffffffffffffffffffffffffffffffffff163373ffffffffffffffffffffffffffffffffffffffff16145b61172f57600080fd5b6001600781111561174357611742613bb2565b5b600260149054906101000a900460ff16600781111561176557611764613bb2565b5b1461176f57600080fd5b600081141580156118fd5750600160009054906101000a900473ffffffffffffffffffffffffffffffffffffffff1673ffffffffffffffffffffffffffffffffffffffff163373ffffffffffffffffffffffffffffffffffffffff1614801561183857508060056000600260009054906101000a900473ffffffffffffffffffffffffffffffffffffffff1673ffffffffffffffffffffffffffffffffffffffff1673ffffffffffffffffffffffffffffffffffffffff16815260200190815260200160002054145b806118fc5750600260009054906101000a900473ffffffffffffffffffffffffffffffffffffffff1673ffffffffffffffffffffffffffffffffffffffff163373ffffffffffffffffffffffffffffffffffffffff161480156118fb57508060056000600160009054906101000a900473ffffffffffffffffffffffffffffffffffffffff1673ffffffffffffffffffffffffffffffffffffffff1673ffffffffffffffffffffffffffffffffffffffff16815260200190815260200160002054145b5b5b61193c576040517f08c379a0000000000000000000000000000000000000000000000000000000008152600401611933906148ad565b60405180910390fd5b7f50ac8120affab45c80b99be15eba8c23598651f799d4ad1c2e0c91f92e7e23b18160405161196b9190613ec1565b60405180910390a18060068190555060028060146101000a81548160ff0219169083600781111561199f5761199e613bb2565b5b021790555050565b600560078111156119bb576119ba613bb2565b5b600260149054906101000a900460ff1660078111156119dd576119dc613bb2565b5b146119e757600080fd5b600d60009054906101000a900473ffffffffffffffffffffffffffffffffffffffff1673ffffffffffffffffffffffffffffffffffffffff163373ffffffffffffffffffffffffffffffffffffffff1614611a4157600080fd5b600073ffffffffffffffffffffffffffffffffffffffff16600360009054906101000a900473ffffffffffffffffffffffffffffffffffffffff1673ffffffffffffffffffffffffffffffffffffffff1614611c705760045443108015611af55750600360009054906101000a900473ffffffffffffffffffffffffffffffffffffffff1673ffffffffffffffffffffffffffffffffffffffff163373ffffffffffffffffffffffffffffffffffffffff16145b15611b2457600360006101000a81549073ffffffffffffffffffffffffffffffffffffffff0219169055611c6f565b6004544310611c6e576000600160009054906101000a900473ffffffffffffffffffffffffffffffffffffffff1673ffffffffffffffffffffffffffffffffffffffff16600360009054906101000a900473ffffffffffffffffffffffffffffffffffffffff1673ffffffffffffffffffffffffffffffffffffffff1614611bce57600160009054906101000a900473ffffffffffffffffffffffffffffffffffffffff16611bf2565b600260009054906101000a900473ffffffffffffffffffffffffffffffffffffffff165b90507fe48a335438ec9cf1059d7b134553ca861398a18d023bd34b9e4d956f5f7ba00481604051611c239190613c85565b60405180910390a180600d60006101000a81548173ffffffffffffffffffffffffffffffffffffffff021916908373ffffffffffffffffffffffffffffffffffffffff160217905550505b5b5b8251845114611c7e57600080fd5b8051845114611c8c57600080fd5b6000600160009054906101000a900473ffffffffffffffffffffffffffffffffffffffff1673ffffffffffffffffffffffffffffffffffffffff163373ffffffffffffffffffffffffffffffffffffffff1614611d0b57600160009054906101000a900473ffffffffffffffffffffffffffffffffffffffff16611d2f565b600260009054906101000a900473ffffffffffffffffffffffffffffffffffffffff165b90506000805b8651811015611fc857611df2878281518110611d5457611d536148cd565b5b6020026020010151878381518110611d6f57611d6e6148cd565b5b6020026020010151878481518110611d8a57611d896148cd565b5b6020026020010151878581518110611da557611da46148cd565b5b6020026020010151600860003373ffffffffffffffffffffffffffffffffffffffff1673ffffffffffffffffffffffffffffffffffffffff16815260200190815260200160002054613a96565b1580611e785750600a60008473ffffffffffffffffffffffffffffffffffffffff1673ffffffffffffffffffffffffffffffffffffffff1681526020019081526020016000206000868381518110611e4d57611e4c6148cd565b5b602002602001015160ff1660ff16815260200190815260200160002060009054906101000a900460ff165b15611efd577fe48a335438ec9cf1059d7b134553ca861398a18d023bd34b9e4d956f5f7ba00483604051611eac9190613c85565b60405180910390a182600d60006101000a81548173ffffffffffffffffffffffffffffffffffffffff021916908373ffffffffffffffffffffffffffffffffffffffff16021790555050505061221f565b6001600a60008573ffffffffffffffffffffffffffffffffffffffff1673ffffffffffffffffffffffffffffffffffffffff1681526020019081526020016000206000878481518110611f5357611f526148cd565b5b602002602001015160ff1660ff16815260200190815260200160002060006101000a81548160ff021916908315150217905550868181518110611f9957611f986148cd565b5b602002602001015115611fb5578180611fb1906148fc565b9250505b8080611fc090614925565b915050611d35565b5060005b604060ff168160ff1610156120d657600a60008473ffffffffffffffffffffffffffffffffffffffff1673ffffffffffffffffffffffffffffffffffffffff16815260200190815260200160002060008260ff1660ff16815260200190815260200160002060009054906101000a900460ff166120c3577fe48a335438ec9cf1059d7b134553ca861398a18d023bd34b9e4d956f5f7ba004836040516120729190613c85565b60405180910390a182600d60006101000a81548173ffffffffffffffffffffffffffffffffffffffff021916908373ffffffffffffffffffffffffffffffffffffffff16021790555050505061221f565b80806120ce906148fc565b915050611fcc565b50600a60ff16600c60003373ffffffffffffffffffffffffffffffffffffffff1673ffffffffffffffffffffffffffffffffffffffff16815260200190815260200160002060009054906101000a900460ff1682612134919061496d565b60ff1603612178577fe48a335438ec9cf1059d7b134553ca861398a18d023bd34b9e4d956f5f7ba0043360405161216b9190613c85565b60405180910390a16121f1565b7fe48a335438ec9cf1059d7b134553ca861398a18d023bd34b9e4d956f5f7ba004826040516121a79190613c85565b60405180910390a181600d60006101000a81548173ffffffffffffffffffffffffffffffffffffffff021916908373ffffffffffffffffffffffffffffffffffffffff1602179055505b6006600260146101000a81548160ff0219169083600781111561221757612216613bb2565b5b021790555050505b50505050565b60045481565b600160009054906101000a900473ffffffffffffffffffffffffffffffffffffffff1673ffffffffffffffffffffffffffffffffffffffff163373ffffffffffffffffffffffffffffffffffffffff1614806122d45750600260009054906101000a900473ffffffffffffffffffffffffffffffffffffffff1673ffffffffffffffffffffffffffffffffffffffff163373ffffffffffffffffffffffffffffffffffffffff16145b6122dd57600080fd5b600073ffffffffffffffffffffffffffffffffffffffff16600360009054906101000a900473ffffffffffffffffffffffffffffffffffffffff1673ffffffffffffffffffffffffffffffffffffffff160361233857600080fd5b6004544310612482576000600160009054906101000a900473ffffffffffffffffffffffffffffffffffffffff1673ffffffffffffffffffffffffffffffffffffffff16600360009054906101000a900473ffffffffffffffffffffffffffffffffffffffff1673ffffffffffffffffffffffffffffffffffffffff16146123e257600160009054906101000a900473ffffffffffffffffffffffffffffffffffffffff16612406565b600260009054906101000a900473ffffffffffffffffffffffffffffffffffffffff165b90507fe48a335438ec9cf1059d7b134553ca861398a18d023bd34b9e4d956f5f7ba004816040516124379190613c85565b60405180910390a180600d60006101000a81548173ffffffffffffffffffffffffffffffffffffffff021916908373ffffffffffffffffffffffffffffffffffffffff160217905550505b565b60008054906101000a900473ffffffffffffffffffffffffffffffffffffffff1673ffffffffffffffffffffffffffffffffffffffff163373ffffffffffffffffffffffffffffffffffffffff16146124dc57600080fd5b600060078111156124f0576124ef613bb2565b5b600260149054906101000a900460ff16600781111561251257612511613bb2565b5b1461251c57600080fd5b80600260006101000a81548173ffffffffffffffffffffffffffffffffffffffff021916908373ffffffffffffffffffffffffffffffffffffffff1602179055506001600260146101000a81548160ff0219169083600781111561258357612582613bb2565b5b021790555050565b60008054906101000a900473ffffffffffffffffffffffffffffffffffffffff1681565b604081565b60056020528060005260406000206000915090505481565b600a81565b600160009054906101000a900473ffffffffffffffffffffffffffffffffffffffff1681565b600960009054906101000a900473ffffffffffffffffffffffffffffffffffffffff1681565b600160009054906101000a900473ffffffffffffffffffffffffffffffffffffffff1673ffffffffffffffffffffffffffffffffffffffff163373ffffffffffffffffffffffffffffffffffffffff1614806126c65750600260009054906101000a900473ffffffffffffffffffffffffffffffffffffffff1673ffffffffffffffffffffffffffffffffffffffff163373ffffffffffffffffffffffffffffffffffffffff16145b6126cf57600080fd5b600160078111156126e3576126e2613bb2565b5b600260149054906101000a900460ff16600781111561270557612704613bb2565b5b1461270f57600080fd5b80600560003373ffffffffffffffffffffffffffffffffffffffff1673ffffffffffffffffffffffffffffffffffffffff168152602001908152602001600020819055503373ffffffffffffffffffffffffffffffffffffffff167f4a8a2c0cf89add878b8fd9d1a4868d4b9536b6cbedec55c1b1eb3a5fa4cfdca2826040516127999190613ec1565b60405180910390a250565b600d60009054906101000a900473ffffffffffffffffffffffffffffffffffffffff1681565b6060600b60008373ffffffffffffffffffffffffffffffffffffffff1673ffffffffffffffffffffffffffffffffffffffff168152602001908152602001600020805480602002602001604051908101604052809291908181526020016000905b828210156128b1578382906000526020600020016040518060400160405290816000820160009054906101000a900460ff1660ff1660ff1681526020016000820160019054906101000a900460ff16600381111561288c5761288b613bb2565b5b600381111561289e5761289d613bb2565b5b815250508152602001906001019061282b565b505050509050919050565b600460078111156128d0576128cf613bb2565b5b600260149054906101000a900460ff1660078111156128f2576128f1613bb2565b5b146128fc57600080fd5b600960009054906101000a900473ffffffffffffffffffffffffffffffffffffffff1673ffffffffffffffffffffffffffffffffffffffff163373ffffffffffffffffffffffffffffffffffffffff161461295657600080fd5b600073ffffffffffffffffffffffffffffffffffffffff16600360009054906101000a900473ffffffffffffffffffffffffffffffffffffffff1673ffffffffffffffffffffffffffffffffffffffff1614612b855760045443108015612a0a5750600360009054906101000a900473ffffffffffffffffffffffffffffffffffffffff1673ffffffffffffffffffffffffffffffffffffffff163373ffffffffffffffffffffffffffffffffffffffff16145b15612a3957600360006101000a81549073ffffffffffffffffffffffffffffffffffffffff0219169055612b84565b6004544310612b83576000600160009054906101000a900473ffffffffffffffffffffffffffffffffffffffff1673ffffffffffffffffffffffffffffffffffffffff16600360009054906101000a900473ffffffffffffffffffffffffffffffffffffffff1673ffffffffffffffffffffffffffffffffffffffff1614612ae357600160009054906101000a900473ffffffffffffffffffffffffffffffffffffffff16612b07565b600260009054906101000a900473ffffffffffffffffffffffffffffffffffffffff165b90507fe48a335438ec9cf1059d7b134553ca861398a18d023bd34b9e4d956f5f7ba00481604051612b389190613c85565b60405180910390a180600d60006101000a81548173ffffffffffffffffffffffffffffffffffffffff021916908373ffffffffffffffffffffffffffffffffffffffff160217905550505b5b5b6000600160009054906101000a900473ffffffffffffffffffffffffffffffffffffffff1673ffffffffffffffffffffffffffffffffffffffff163373ffffffffffffffffffffffffffffffffffffffff1614612c0457600160009054906101000a900473ffffffffffffffffffffffffffffffffffffffff16612c28565b600260009054906101000a900473ffffffffffffffffffffffffffffffffffffffff165b905060006001600b60008473ffffffffffffffffffffffffffffffffffffffff1673ffffffffffffffffffffffffffffffffffffffff16815260200190815260200160002080549050612c7b91906149a2565b905060016003811115612c9157612c90613bb2565b5b600b60008473ffffffffffffffffffffffffffffffffffffffff1673ffffffffffffffffffffffffffffffffffffffff1681526020019081526020016000208281548110612ce257612ce16148cd565b5b9060005260206000200160000160019054906101000a900460ff166003811115612d0f57612d0e613bb2565b5b14612d1d57612d1c6149d6565b5b8460ff16600b60008473ffffffffffffffffffffffffffffffffffffffff1673ffffffffffffffffffffffffffffffffffffffff1681526020019081526020016000208281548110612d7257612d716148cd565b5b9060005260206000200160000160009054906101000a900460ff1660ff1614612d9a57600080fd5b612de687878787600860003373ffffffffffffffffffffffffffffffffffffffff1673ffffffffffffffffffffffffffffffffffffffff16815260200190815260200160002054613a96565b612e94577fe48a335438ec9cf1059d7b134553ca861398a18d023bd34b9e4d956f5f7ba00482604051612e199190613c85565b60405180910390a16006600260146101000a81548160ff02191690836007811115612e4757612e46613bb2565b5b021790555081600d60006101000a81548173ffffffffffffffffffffffffffffffffffffffff021916908373ffffffffffffffffffffffffffffffffffffffff1602179055505050613133565b861561309f576002600b60008473ffffffffffffffffffffffffffffffffffffffff1673ffffffffffffffffffffffffffffffffffffffff1681526020019081526020016000208281548110612eed57612eec6148cd565b5b9060005260206000200160000160016101000a81548160ff02191690836003811115612f1c57612f1b613bb2565b5b0217905550600c60003373ffffffffffffffffffffffffffffffffffffffff1673ffffffffffffffffffffffffffffffffffffffff168152602001908152602001600020600081819054906101000a900460ff1680929190612f7d906148fc565b91906101000a81548160ff021916908360ff16021790555050600a60ff16600c60003373ffffffffffffffffffffffffffffffffffffffff1673ffffffffffffffffffffffffffffffffffffffff16815260200190815260200160002060009054906101000a900460ff1660ff160361309a577f745c90b656b4aafe296c8ca35aeacfe56cb96c90e1d320e5da643fff1051b6c08260405161301f9190613c85565b60405180910390a181600d60006101000a81548173ffffffffffffffffffffffffffffffffffffffff021916908373ffffffffffffffffffffffffffffffffffffffff1602179055506005600260146101000a81548160ff0219169083600781111561308e5761308d613bb2565b5b02179055505050613133565b613127565b6003600b60008473ffffffffffffffffffffffffffffffffffffffff1673ffffffffffffffffffffffffffffffffffffffff16815260200190815260200160002082815481106130f2576130f16148cd565b5b9060005260206000200160000160016101000a81548160ff0219169083600381111561312157613120613bb2565b5b02179055505b613130836136fe565b50505b5050505050565b600160009054906101000a900473ffffffffffffffffffffffffffffffffffffffff1673ffffffffffffffffffffffffffffffffffffffff163373ffffffffffffffffffffffffffffffffffffffff1614806131e35750600260009054906101000a900473ffffffffffffffffffffffffffffffffffffffff1673ffffffffffffffffffffffffffffffffffffffff163373ffffffffffffffffffffffffffffffffffffffff16145b6131ec57600080fd5b60036007811115613200576131ff613bb2565b5b600260149054906101000a900460ff16600781111561322257613221613bb2565b5b1461322c57600080fd5b600073ffffffffffffffffffffffffffffffffffffffff16600360009054906101000a900473ffffffffffffffffffffffffffffffffffffffff1673ffffffffffffffffffffffffffffffffffffffff161461345b57600454431080156132e05750600360009054906101000a900473ffffffffffffffffffffffffffffffffffffffff1673ffffffffffffffffffffffffffffffffffffffff163373ffffffffffffffffffffffffffffffffffffffff16145b1561330f57600360006101000a81549073ffffffffffffffffffffffffffffffffffffffff021916905561345a565b6004544310613459576000600160009054906101000a900473ffffffffffffffffffffffffffffffffffffffff1673ffffffffffffffffffffffffffffffffffffffff16600360009054906101000a900473ffffffffffffffffffffffffffffffffffffffff1673ffffffffffffffffffffffffffffffffffffffff16146133b957600160009054906101000a900473ffffffffffffffffffffffffffffffffffffffff166133dd565b600260009054906101000a900473ffffffffffffffffffffffffffffffffffffffff165b90507fe48a335438ec9cf1059d7b134553ca861398a18d023bd34b9e4d956f5f7ba0048160405161340e9190613c85565b60405180910390a180600d60006101000a81548173ffffffffffffffffffffffffffffffffffffffff021916908373ffffffffffffffffffffffffffffffffffffffff160217905550505b5b5b6000801b600860003373ffffffffffffffffffffffffffffffffffffffff1673ffffffffffffffffffffffffffffffffffffffff16815260200190815260200160002054146134df576040517f08c379a00000000000000000000000000000000000000000000000000000000081526004016134d690614a77565b60405180910390fd5b80600860003373ffffffffffffffffffffffffffffffffffffffff1673ffffffffffffffffffffffffffffffffffffffff168152602001908152602001600020819055506000801b60086000600160009054906101000a900473ffffffffffffffffffffffffffffffffffffffff1673ffffffffffffffffffffffffffffffffffffffff1673ffffffffffffffffffffffffffffffffffffffff16815260200190815260200160002054141580156135fb57506000801b60086000600260009054906101000a900473ffffffffffffffffffffffffffffffffffffffff1673ffffffffffffffffffffffffffffffffffffffff1673ffffffffffffffffffffffffffffffffffffffff1681526020019081526020016000205414155b156136bb577f48c0ac148c6adb019cea448b4b78c69778a7b6abdfadce9a6acdc8b983e94bee60405160405180910390a16004600260146101000a81548160ff0219169083600781111561365257613651613bb2565b5b0217905550600260009054906101000a900473ffffffffffffffffffffffffffffffffffffffff16600960006101000a81548173ffffffffffffffffffffffffffffffffffffffff021916908373ffffffffffffffffffffffffffffffffffffffff1602179055505b50565b60076020528060005260406000206000915054906101000a900460ff1681565b600c6020528060005260406000206000915054906101000a900460ff1681565b60001515600a60003373ffffffffffffffffffffffffffffffffffffffff1673ffffffffffffffffffffffffffffffffffffffff16815260200190815260200160002060008360ff1660ff16815260200190815260200160002060009054906101000a900460ff161515146137a8576040517f08c379a000000000000000000000000000000000000000000000000000000000815260040161379f90614ae3565b60405180910390fd5b604060ff168160ff16106137f1576040517f08c379a00000000000000000000000000000000000000000000000000000000081526004016137e890614b4f565b60405180910390fd5b6001600a60003373ffffffffffffffffffffffffffffffffffffffff1673ffffffffffffffffffffffffffffffffffffffff16815260200190815260200160002060008360ff1660ff16815260200190815260200160002060006101000a81548160ff021916908315150217905550600b60003373ffffffffffffffffffffffffffffffffffffffff1673ffffffffffffffffffffffffffffffffffffffff16815260200190815260200160002060405180604001604052808360ff168152602001600160038111156138c7576138c6613bb2565b5b8152509080600181540180825580915050600190039060005260206000200160009091909190915060008201518160000160006101000a81548160ff021916908360ff16021790555060208201518160000160016101000a81548160ff0219169083600381111561393b5761393a613bb2565b5b021790555050503373ffffffffffffffffffffffffffffffffffffffff167f665e09da1c684bb4ada2b5c04fe0bb20328ca455aae1928734e0a40dcf0e099e8260405161398891906144f2565b60405180910390a2600160009054906101000a900473ffffffffffffffffffffffffffffffffffffffff1673ffffffffffffffffffffffffffffffffffffffff16600960009054906101000a900473ffffffffffffffffffffffffffffffffffffffff1673ffffffffffffffffffffffffffffffffffffffff1614613a2f57600160009054906101000a900473ffffffffffffffffffffffffffffffffffffffff16613a53565b600260009054906101000a900473ffffffffffffffffffffffffffffffffffffffff165b600960006101000a81548173ffffffffffffffffffffffffffffffffffffffff021916908373ffffffffffffffffffffffffffffffffffffffff16021790555050565b600080868686604051602001613aae93929190614b6f565b60405160208183030381529060405280519060200120604051602001613ad49190614bc7565b604051602081830303815290604052805190602001209050613af7848483613b03565b91505095945050505050565b600082613b108584613b1a565b1490509392505050565b60008082905060005b8451811015613b6557613b5082868381518110613b4357613b426148cd565b5b6020026020010151613b70565b91508080613b5d90614925565b915050613b23565b508091505092915050565b6000818310613b8857613b838284613b9b565b613b93565b613b928383613b9b565b5b905092915050565b600082600052816020526040600020905092915050565b7f4e487b7100000000000000000000000000000000000000000000000000000000600052602160045260246000fd5b60088110613bf257613bf1613bb2565b5b50565b6000819050613c0382613be1565b919050565b6000613c1382613bf5565b9050919050565b613c2381613c08565b82525050565b6000602082019050613c3e6000830184613c1a565b92915050565b600073ffffffffffffffffffffffffffffffffffffffff82169050919050565b6000613c6f82613c44565b9050919050565b613c7f81613c64565b82525050565b6000602082019050613c9a6000830184613c76565b92915050565b6000604051905090565b600080fd5b600080fd5b600060ff82169050919050565b613cca81613cb4565b8114613cd557600080fd5b50565b600081359050613ce781613cc1565b92915050565b600060208284031215613d0357613d02613caa565b5b6000613d1184828501613cd8565b91505092915050565b613d2381613c64565b8114613d2e57600080fd5b50565b600081359050613d4081613d1a565b92915050565b6000819050919050565b613d5981613d46565b8114613d6457600080fd5b50565b600081359050613d7681613d50565b92915050565b60008060408385031215613d9357613d92613caa565b5b6000613da185828601613d31565b9250506020613db285828601613d67565b9150509250929050565b613dc581613cb4565b82525050565b60048110613ddc57613ddb613bb2565b5b50565b6000819050613ded82613dcb565b919050565b6000613dfd82613ddf565b9050919050565b613e0d81613df2565b82525050565b6000604082019050613e286000830185613dbc565b613e356020830184613e04565b9392505050565b60008060408385031215613e5357613e52613caa565b5b6000613e6185828601613d31565b9250506020613e7285828601613cd8565b9150509250929050565b60008115159050919050565b613e9181613e7c565b82525050565b6000602082019050613eac6000830184613e88565b92915050565b613ebb81613d46565b82525050565b6000602082019050613ed66000830184613eb2565b92915050565b600060208284031215613ef257613ef1613caa565b5b6000613f0084828501613d67565b91505092915050565b600080fd5b6000601f19601f8301169050919050565b7f4e487b7100000000000000000000000000000000000000000000000000000000600052604160045260246000fd5b613f5782613f0e565b810181811067ffffffffffffffff82111715613f7657613f75613f1f565b5b80604052505050565b6000613f89613ca0565b9050613f958282613f4e565b919050565b600067ffffffffffffffff821115613fb557613fb4613f1f565b5b602082029050602081019050919050565b600080fd5b613fd481613e7c565b8114613fdf57600080fd5b50565b600081359050613ff181613fcb565b92915050565b600061400a61400584613f9a565b613f7f565b9050808382526020820190506020840283018581111561402d5761402c613fc6565b5b835b8181101561405657806140428882613fe2565b84526020840193505060208101905061402f565b5050509392505050565b600082601f83011261407557614074613f09565b5b8135614085848260208601613ff7565b91505092915050565b600067ffffffffffffffff8211156140a9576140a8613f1f565b5b602082029050602081019050919050565b60006140cd6140c88461408e565b613f7f565b905080838252602082019050602084028301858111156140f0576140ef613fc6565b5b835b8181101561411957806141058882613d67565b8452602084019350506020810190506140f2565b5050509392505050565b600082601f83011261413857614137613f09565b5b81356141488482602086016140ba565b91505092915050565b600067ffffffffffffffff82111561416c5761416b613f1f565b5b602082029050602081019050919050565b600061419061418b84614151565b613f7f565b905080838252602082019050602084028301858111156141b3576141b2613fc6565b5b835b818110156141dc57806141c88882613cd8565b8452602084019350506020810190506141b5565b5050509392505050565b600082601f8301126141fb576141fa613f09565b5b813561420b84826020860161417d565b91505092915050565b600067ffffffffffffffff82111561422f5761422e613f1f565b5b602082029050602081019050919050565b600067ffffffffffffffff82111561425b5761425a613f1f565b5b602082029050602081019050919050565b6000819050919050565b61427f8161426c565b811461428a57600080fd5b50565b60008135905061429c81614276565b92915050565b60006142b56142b084614240565b613f7f565b905080838252602082019050602084028301858111156142d8576142d7613fc6565b5b835b8181101561430157806142ed888261428d565b8452602084019350506020810190506142da565b5050509392505050565b600082601f8301126143205761431f613f09565b5b81356143308482602086016142a2565b91505092915050565b600061434c61434784614214565b613f7f565b9050808382526020820190506020840283018581111561436f5761436e613fc6565b5b835b818110156143b657803567ffffffffffffffff81111561439457614393613f09565b5b8086016143a1898261430b565b85526020850194505050602081019050614371565b5050509392505050565b600082601f8301126143d5576143d4613f09565b5b81356143e5848260208601614339565b91505092915050565b6000806000806080858703121561440857614407613caa565b5b600085013567ffffffffffffffff81111561442657614425613caf565b5b61443287828801614060565b945050602085013567ffffffffffffffff81111561445357614452613caf565b5b61445f87828801614123565b935050604085013567ffffffffffffffff8111156144805761447f613caf565b5b61448c878288016141e6565b925050606085013567ffffffffffffffff8111156144ad576144ac613caf565b5b6144b9878288016143c0565b91505092959194509250565b6000602082840312156144db576144da613caa565b5b60006144e984828501613d31565b91505092915050565b60006020820190506145076000830184613dbc565b92915050565b600081519050919050565b600082825260208201905092915050565b6000819050602082019050919050565b61454281613cb4565b82525050565b61455181613df2565b82525050565b60408201600082015161456d6000850182614539565b5060208201516145806020850182614548565b50505050565b60006145928383614557565b60408301905092915050565b6000602082019050919050565b60006145b68261450d565b6145c08185614518565b93506145cb83614529565b8060005b838110156145fc5781516145e38882614586565b97506145ee8361459e565b9250506001810190506145cf565b5085935050505092915050565b6000602082019050818103600083015261462381846145ab565b905092915050565b600080600080600060a0868803121561464757614646613caa565b5b600061465588828901613fe2565b955050602061466688828901613d67565b945050604061467788828901613cd8565b935050606086013567ffffffffffffffff81111561469857614697613caf565b5b6146a48882890161430b565b92505060806146b588828901613cd8565b9150509295509295909350565b6000602082840312156146d8576146d7613caa565b5b60006146e68482850161428d565b91505092915050565b600082825260208201905092915050565b7f43616e6e6f74207265706f72742041464b20706c61796572206e6f7700000000600082015250565b6000614736601c836146ef565b915061474182614700565b602082019050919050565b6000602082019050818103600083015261476581614729565b9050919050565b7f4e487b7100000000000000000000000000000000000000000000000000000000600052601160045260246000fd5b60006147a682613d46565b91506147b183613d46565b92508282019050808211156147c9576147c861476c565b5b92915050565b7f53686f756c64207061792065786163746c79207468652061677265656420616d60008201527f6f756e7400000000000000000000000000000000000000000000000000000000602082015250565b600061482b6024836146ef565b9150614836826147cf565b604082019050919050565b6000602082019050818103600083015261485a8161481e565b9050919050565b7f416d6f756e7420696e76616c6964206f7220646f6573206e6f74206d61746368600082015250565b60006148976020836146ef565b91506148a282614861565b602082019050919050565b600060208201905081810360008301526148c68161488a565b9050919050565b7f4e487b7100000000000000000000000000000000000000000000000000000000600052603260045260246000fd5b600061490782613cb4565b915060ff820361491a5761491961476c565b5b600182019050919050565b600061493082613d46565b91507fffffffffffffffffffffffffffffffffffffffffffffffffffffffffffffffff82036149625761496161476c565b5b600182019050919050565b600061497882613cb4565b915061498383613cb4565b9250828201905060ff81111561499c5761499b61476c565b5b92915050565b60006149ad82613d46565b91506149b883613d46565b92508282039050818111156149d0576149cf61476c565b5b92915050565b7f4e487b7100000000000000000000000000000000000000000000000000000000600052600160045260246000fd5b7f596f75206861766520616c7265616420636f6d6d697474656420796f7572206260008201527f6f61726421000000000000000000000000000000000000000000000000000000602082015250565b6000614a616025836146ef565b9150614a6c82614a05565b604082019050919050565b60006020820190508181036000830152614a9081614a54565b9050919050565b7f596f75206861766520616c72656164792073686f7420746861742063656c6c00600082015250565b6000614acd601f836146ef565b9150614ad882614a97565b602082019050919050565b60006020820190508181036000830152614afc81614ac0565b9050919050565b7f43656c6c20697320696e76616c69640000000000000000000000000000000000600082015250565b6000614b39600f836146ef565b9150614b4482614b03565b602082019050919050565b60006020820190508181036000830152614b6881614b2c565b9050919050565b6000606082019050614b846000830186613e88565b614b916020830185613eb2565b614b9e6040830184613dbc565b949350505050565b6000819050919050565b614bc1614bbc8261426c565b614ba6565b82525050565b6000614bd38284614bb0565b6020820191508190509291505056fea264697066735822122097333afc018a0087826d92dc543f9d6c59b70b1d20ddf4766f702dd44cf5343a64736f6c63430008110033a2646970667358221220185dbad314f20920b9b73a12804e5c05ff689bfe1f6e6ea8e0022e4010d5510b64736f6c63430008110033",
  "immutableReferences": {},
  "source": "// SPDX-License-Identifier: MIT\npragma solidity >=0.4.22 <0.9.0;\n\nimport \"./BattleshipGame.sol\";\n\ncontract Battleship {\n    //\n    //\n    // variables\n    //\n    //\n\n    // Maps BattleshipGames that are currently in the WaitingForPlayer phase.\n    // Needed to keep track of valid indexes in joinableGamesIndexes\n    mapping(BattleshipGame => bool) private joinableGamesMap;\n\n    // Addresses of the BattleshipGame in the WaitingForPlayer phase.\n    // We need to keep this list to implement a random join functionality\n    BattleshipGame[] private joinableGames;\n\n    // Mapping that keeps the association of the index of a BattleshipGame\n    // inside the joinableGames. Used to prevent the need of iterating through\n    // joinableGames for deletion\n    mapping(BattleshipGame => uint256) private joinableGamesIndexes;\n\n    // Nonce for pseudo-random number generation\n    uint256 private nonce;\n\n    //\n    //\n    // events\n    //\n    //\n\n    // Emitted when a new game is created\n    event NewGame(address indexed creator, BattleshipGame game);\n\n    // Emitted when second player joins\n    event JoinGame(address indexed player, BattleshipGame indexed game);\n\n    // Emitted when player tries to join a random game, but not game is available\n    event NoGame(address indexed player);\n\n    //\n    //\n    // public functions\n    //\n    //\n\n    function createGame() external {\n        // Create a new game by deploying a new BattleshipGame contract\n        BattleshipGame newGame = new BattleshipGame(msg.sender);\n\n        // Add the game to our state\n        _addGame(newGame);\n\n        // Emit event to inform client of newGame address\n        emit NewGame(msg.sender, newGame);\n    }\n\n    function joinGameByID(BattleshipGame _game) external {\n        require(\n            joinableGamesMap[_game] == true,\n            \"Game does not exist or cannot be joined\"\n        );\n\n        require(\n            msg.sender != _game.playerOne(),\n            \"It's kinda sad to play alone, isn't it?\"\n        );\n\n        // Register the sender as the second player for the chosen game\n        _game.registerPlayerTwo(msg.sender);\n\n        // Delete the game\n        _removeGame(_game);\n\n        emit JoinGame(msg.sender, _game);\n    }\n\n    function joinRandomGame() external {\n        require(joinableGames.length > 0, \"There is no joinable game\");\n\n        // Generate a random starting index\n        uint256 random = uint256(\n            keccak256(\n                abi.encodePacked(blockhash(block.number - 1), msg.sender, nonce)\n            )\n        ) % joinableGames.length;\n\n        // Increment nonce\n        nonce++;\n\n        // We use the random index as a starting point. We need to check that we\n        // do not pick a game that msg.sender created, thus the need to possibly loop\n        // at most joinableGames.length times. In most cases, the for body is executed once.\n        bool found = false;\n        for (uint256 i = 0; i < joinableGames.length; i++) {\n            // Get the randomly selected game\n            BattleshipGame game = joinableGames[\n                (random + i) % joinableGames.length\n            ];\n\n            // Check if picked game was created by msg.sender\n            if (game.playerOne() != msg.sender) {\n                found = true;\n\n                // Register msg.sender as the second player\n                game.registerPlayerTwo(msg.sender);\n\n                // Remove game from our state\n                _removeGame(game);\n\n                // Inform client of game address\n                emit JoinGame(msg.sender, game);\n                break;\n            }\n        }\n\n        // There is no playable game for msg.sender (i.e. msg.sender has created all joinable games)\n        if (!found) emit NoGame(msg.sender);\n    }\n\n    //\n    //\n    // helpers\n    //\n    //\n\n    function _removeGame(BattleshipGame _game) internal {\n        // Must be called with a BattleshipGame that is currently saved in our state\n        assert(joinableGamesMap[_game] == true);\n        assert(joinableGames.length > 0);\n\n        delete joinableGamesMap[_game];\n\n        // Remove _game from joinableGames array\n        // Does not retain elements order, therefore we also need to update joinableGamesIndexes\n        uint256 index = joinableGamesIndexes[_game];\n        if (joinableGames.length == 1 || index == joinableGames.length - 1) {\n            joinableGames.pop();\n        } else {\n            joinableGames[index] = joinableGames[joinableGames.length - 1];\n            joinableGames.pop();\n            joinableGamesIndexes[joinableGames[index]] = index;\n        }\n\n        delete joinableGamesIndexes[_game];\n    }\n\n    function _addGame(BattleshipGame _game) internal {\n        // Add the game to the list of games that can be joined\n        joinableGamesMap[_game] = true;\n        joinableGames.push(_game);\n        // Push inserts at the top, thus length - 1 is the index of the element\n        joinableGamesIndexes[_game] = joinableGames.length - 1;\n    }\n}\n",
  "sourcePath": "/home/kalex/Projects/P2P_blockchain/battleship/contracts/Battleship.sol",
  "compiler": {
    "name": "solc",
    "version": "0.8.17+commit.8df45f5f.Emscripten.clang"
  },
  "schemaVersion": "3.4.11",
  "updatedAt": "2023-05-24T06:36:17.057Z",
  "networkType": "ethereum",
  "devdoc": {
    "kind": "dev",
    "methods": {},
    "version": 1
  },
  "userdoc": {
    "kind": "user",
    "methods": {},
    "version": 1
  }
}